{
  "_format": "hh-sol-artifact-1",
  "contractName": "TrustService",
  "sourceName": "contracts/TrustService.sol",
  "abi": [
    {
      "inputs": [
        {
          "internalType": "address",
          "name": "initialOwner",
          "type": "address"
        }
      ],
      "stateMutability": "nonpayable",
      "type": "constructor"
    },
    {
      "inputs": [
        {
          "internalType": "address",
          "name": "owner",
          "type": "address"
        }
      ],
      "name": "OwnableInvalidOwner",
      "type": "error"
    },
    {
      "inputs": [
        {
          "internalType": "address",
          "name": "account",
          "type": "address"
        }
      ],
      "name": "OwnableUnauthorizedAccount",
      "type": "error"
    },
    {
      "inputs": [],
      "name": "ReentrancyGuardReentrantCall",
      "type": "error"
    },
    {
      "anonymous": false,
      "inputs": [
        {
          "indexed": true,
          "internalType": "address",
          "name": "previousOwner",
          "type": "address"
        },
        {
          "indexed": true,
          "internalType": "address",
          "name": "newOwner",
          "type": "address"
        }
      ],
      "name": "OwnershipTransferred",
      "type": "event"
    },
    {
      "anonymous": false,
      "inputs": [
        {
          "indexed": true,
          "internalType": "address",
          "name": "addr",
          "type": "address"
        },
        {
          "indexed": false,
          "internalType": "uint256",
          "name": "oldRole",
          "type": "uint256"
        },
        {
          "indexed": false,
          "internalType": "uint256",
          "name": "newRole",
          "type": "uint256"
        }
      ],
      "name": "RoleChanged",
      "type": "event"
    },
    {
      "inputs": [
        {
          "internalType": "address",
          "name": "addr",
          "type": "address"
        },
        {
          "internalType": "uint256",
          "name": "minRole",
          "type": "uint256"
        }
      ],
      "name": "hasMinimumRole",
      "outputs": [
        {
          "internalType": "bool",
          "name": "",
          "type": "bool"
        }
      ],
      "stateMutability": "view",
      "type": "function"
    },
    {
      "inputs": [
        {
          "internalType": "address",
          "name": "addr",
          "type": "address"
        },
        {
          "internalType": "uint256",
          "name": "role",
          "type": "uint256"
        }
      ],
      "name": "hasRole",
      "outputs": [
        {
          "internalType": "bool",
          "name": "",
          "type": "bool"
        }
      ],
      "stateMutability": "view",
      "type": "function"
    },
    {
      "inputs": [
        {
          "internalType": "address",
          "name": "addr",
          "type": "address"
        }
      ],
      "name": "isRoleManager",
      "outputs": [
        {
          "internalType": "bool",
          "name": "",
          "type": "bool"
        }
      ],
      "stateMutability": "view",
      "type": "function"
    },
    {
      "inputs": [],
      "name": "owner",
      "outputs": [
        {
          "internalType": "address",
          "name": "",
          "type": "address"
        }
      ],
      "stateMutability": "view",
      "type": "function"
    },
    {
      "inputs": [],
      "name": "renounceOwnership",
      "outputs": [],
      "stateMutability": "nonpayable",
      "type": "function"
    },
    {
      "inputs": [
        {
          "internalType": "uint256",
          "name": "role",
          "type": "uint256"
        },
        {
          "internalType": "uint256",
          "name": "index",
          "type": "uint256"
        }
      ],
      "name": "roleMemberAt",
      "outputs": [
        {
          "internalType": "address",
          "name": "",
          "type": "address"
        }
      ],
      "stateMutability": "view",
      "type": "function"
    },
    {
      "inputs": [
        {
          "internalType": "uint256",
          "name": "role",
          "type": "uint256"
        }
      ],
      "name": "roleMemberCount",
      "outputs": [
        {
          "internalType": "uint256",
          "name": "",
          "type": "uint256"
        }
      ],
      "stateMutability": "view",
      "type": "function"
    },
    {
      "inputs": [
        {
          "internalType": "address",
          "name": "addr",
          "type": "address"
        }
      ],
      "name": "roleOf",
      "outputs": [
        {
          "internalType": "uint256",
          "name": "",
          "type": "uint256"
        }
      ],
      "stateMutability": "view",
      "type": "function"
    },
    {
      "inputs": [
        {
          "internalType": "address",
          "name": "addr",
          "type": "address"
        },
        {
          "internalType": "uint256",
          "name": "role",
          "type": "uint256"
        }
      ],
      "name": "setRole",
      "outputs": [],
      "stateMutability": "nonpayable",
      "type": "function"
    },
    {
      "inputs": [
        {
          "internalType": "address",
          "name": "manager",
          "type": "address"
        },
        {
          "internalType": "bool",
          "name": "enabled",
          "type": "bool"
        }
      ],
      "name": "setRoleManager",
      "outputs": [],
      "stateMutability": "nonpayable",
      "type": "function"
    },
    {
      "inputs": [
        {
          "internalType": "address",
          "name": "newOwner",
          "type": "address"
        }
      ],
      "name": "transferOwnership",
      "outputs": [],
      "stateMutability": "nonpayable",
      "type": "function"
    }
  ],
  "bytecode": "0x60806040523480156200001157600080fd5b5060405162000da338038062000da383398101604081905262000034916200036f565b806001600160a01b0381166200006457604051631e4fbdf760e01b81526000600482015260240160405180910390fd5b6200006f81620000aa565b50600180805562000082908290620000fa565b6001600160a01b03166000908152600560205260409020805460ff19166001179055620003f5565b600080546001600160a01b038381166001600160a01b0319831681178455604051919092169283917f8be0079c531659141344cd1fd0a4f28419497f9722a3daafe3b4186f6b6457e09190a35050565b6001600160a01b0382166000908152600260205260409020548015620001265762000126838262000159565b6001600160a01b038316600090815260026020526040902082905581156200015457620001548383620002e8565b505050565b60008181526004602090815260408083206001600160a01b038616845290915290205460ff1615620002e45760008181526004602090815260408083206001600160a01b03861684528252808320805460ff1916905583835260039091528120905b8154811015620002e157836001600160a01b0316828281548110620001e457620001e4620003a1565b6000918252602090912001546001600160a01b031603620002d85781546200020f90600190620003b7565b81146200029d57815482906200022890600190620003b7565b815481106200023b576200023b620003a1565b9060005260206000200160009054906101000a90046001600160a01b03168282815481106200026e576200026e620003a1565b9060005260206000200160006101000a8154816001600160a01b0302191690836001600160a01b031602179055505b81805480620002b057620002b0620003df565b600082815260209020810160001990810180546001600160a01b0319169055019055620002e1565b600101620001bb565b50505b5050565b60008181526004602090815260408083206001600160a01b038616845290915290205460ff16620002e45760008181526004602090815260408083206001600160a01b0395909516808452948252808320805460ff1916600190811790915593835260038252822080549384018155825290200180546001600160a01b0319169091179055565b6000602082840312156200038257600080fd5b81516001600160a01b03811681146200039a57600080fd5b9392505050565b634e487b7160e01b600052603260045260246000fd5b81810381811115620003d957634e487b7160e01b600052601160045260246000fd5b92915050565b634e487b7160e01b600052603160045260246000fd5b61099e80620004056000396000f3fe608060405234801561001057600080fd5b50600436106100a95760003560e01c8063715018a611610071578063715018a61461018857806374277a63146101925780638da5cb5b146101a5578063a1ca3586146101b6578063a5d7827e146101c9578063f2fde38b146101f257600080fd5b80630bc13f08146100ae5780631c787568146100e15780632d524393146101045780635c97f4a2146101305780636011dce01461015d575b600080fd5b6100ce6100bc36600461083c565b60009081526003602052604090205490565b6040519081526020015b60405180910390f35b6100f46100ef366004610871565b610205565b60405190151581526020016100d8565b6100f461011236600461089b565b6001600160a01b031660009081526005602052604090205460ff1690565b6100f461013e366004610871565b6001600160a01b03919091166000908152600260205260409020541490565b61017061016b3660046108bd565b61028a565b6040516001600160a01b0390911681526020016100d8565b61019061031e565b005b6101906101a0366004610871565b610332565b6000546001600160a01b0316610170565b6101906101c43660046108df565b610479565b6100ce6101d736600461089b565b6001600160a01b031660009081526002602052604090205490565b61019061020036600461089b565b610500565b6001600160a01b0382166000908152600260205260408120546000198101610231576001915050610284565b60018303610243576001149050610284565b6002830361026257600181148061025a5750600281145b915050610284565b6004830361027e57600181148061025a57506004149050610284565b60009150505b92915050565b60008281526003602052604081205482106102e25760405162461bcd60e51b8152602060048201526013602482015272496e646578206f7574206f6620626f756e647360681b60448201526064015b60405180910390fd5b60008381526003602052604090208054839081106103025761030261091b565b6000918252602090912001546001600160a01b03169392505050565b61032661053e565b610330600061056b565b565b61033a6105bb565b6000546001600160a01b031633148061036257503360009081526005602052604090205460ff165b6103ae5760405162461bcd60e51b815260206004820152601b60248201527f4e6f7420617574686f72697a656420746f2073657420726f6c6573000000000060448201526064016102d9565b6001600160a01b0382166104045760405162461bcd60e51b815260206004820152601860248201527f5a65726f2061646472657373206e6f7420616c6c6f776564000000000000000060448201526064016102d9565b6001600160a01b03821660009081526002602052604090205461042783836105e5565b60408051828152602081018490526001600160a01b038516917fda65eff493aacbaacd2348758c3c840dc21890ae310bf3500e2688198c0bd2b1910160405180910390a25061047560018055565b5050565b61048161053e565b6001600160a01b0382166000818152600560205260409020805460ff19168315151790557fda65eff493aacbaacd2348758c3c840dc21890ae310bf3500e2688198c0bd2b1826104d25760016104d5565b60005b836104e15760006104e4565b60015b6040805192835260208301919091520160405180910390a25050565b61050861053e565b6001600160a01b03811661053257604051631e4fbdf760e01b8152600060048201526024016102d9565b61053b8161056b565b50565b6000546001600160a01b031633146103305760405163118cdaa760e01b81523360048201526024016102d9565b600080546001600160a01b038381166001600160a01b0319831681178455604051919092169283917f8be0079c531659141344cd1fd0a4f28419497f9722a3daafe3b4186f6b6457e09190a35050565b6002600154036105de57604051633ee5aeb560e01b815260040160405180910390fd5b6002600155565b6001600160a01b038216600090815260026020526040902054801561060e5761060e838261063e565b6001600160a01b038316600090815260026020526040902082905581156106395761063983836107b6565b505050565b60008181526004602090815260408083206001600160a01b038616845290915290205460ff16156104755760008181526004602090815260408083206001600160a01b03861684528252808320805460ff1916905583835260039091528120905b81548110156107b057836001600160a01b03168282815481106106c4576106c461091b565b6000918252602090912001546001600160a01b0316036107a85781546106ec90600190610931565b8114610771578154829061070290600190610931565b815481106107125761071261091b565b9060005260206000200160009054906101000a90046001600160a01b03168282815481106107425761074261091b565b9060005260206000200160006101000a8154816001600160a01b0302191690836001600160a01b031602179055505b8180548061078157610781610952565b600082815260209020810160001990810180546001600160a01b03191690550190556107b0565b60010161069f565b50505050565b60008181526004602090815260408083206001600160a01b038616845290915290205460ff166104755760008181526004602090815260408083206001600160a01b0395909516808452948252808320805460ff1916600190811790915593835260038252822080549384018155825290200180546001600160a01b0319169091179055565b60006020828403121561084e57600080fd5b5035919050565b80356001600160a01b038116811461086c57600080fd5b919050565b6000806040838503121561088457600080fd5b61088d83610855565b946020939093013593505050565b6000602082840312156108ad57600080fd5b6108b682610855565b9392505050565b600080604083850312156108d057600080fd5b50508035926020909101359150565b600080604083850312156108f257600080fd5b6108fb83610855565b91506020830135801515811461091057600080fd5b809150509250929050565b634e487b7160e01b600052603260045260246000fd5b8181038181111561028457634e487b7160e01b600052601160045260246000fd5b634e487b7160e01b600052603160045260246000fdfea2646970667358221220f46d4e7f8b4a76d361c7d962f3e79e8a378c5bcd01c89d120c69be85ab5a7f9564736f6c63430008180033",
  "linkReferences": {},
  "deployedLinkReferences": {}
}