{
  "_format": "hh-sol-artifact-1",
  "contractName": "RegistryService",
  "sourceName": "contracts/RegistryService.sol",
  "abi": [
    {
      "inputs": [
        {
          "internalType": "address",
          "name": "initialOwner",
          "type": "address"
        }
      ],
      "stateMutability": "nonpayable",
      "type": "constructor"
    },
    {
      "inputs": [
        {
          "internalType": "address",
          "name": "owner",
          "type": "address"
        }
      ],
      "name": "OwnableInvalidOwner",
      "type": "error"
    },
    {
      "inputs": [
        {
          "internalType": "address",
          "name": "account",
          "type": "address"
        }
      ],
      "name": "OwnableUnauthorizedAccount",
      "type": "error"
    },
    {
      "inputs": [],
      "name": "ReentrancyGuardReentrantCall",
      "type": "error"
    },
    {
      "anonymous": false,
      "inputs": [
        {
          "indexed": true,
          "internalType": "string",
          "name": "investorId",
          "type": "string"
        },
        {
          "indexed": false,
          "internalType": "uint256",
          "name": "attrId",
          "type": "uint256"
        },
        {
          "indexed": false,
          "internalType": "uint256",
          "name": "value",
          "type": "uint256"
        },
        {
          "indexed": false,
          "internalType": "uint256",
          "name": "expiry",
          "type": "uint256"
        },
        {
          "indexed": false,
          "internalType": "bytes32",
          "name": "proofHash",
          "type": "bytes32"
        }
      ],
      "name": "AttributeSet",
      "type": "event"
    },
    {
      "anonymous": false,
      "inputs": [
        {
          "indexed": true,
          "internalType": "string",
          "name": "investorId",
          "type": "string"
        },
        {
          "indexed": false,
          "internalType": "string",
          "name": "country",
          "type": "string"
        }
      ],
      "name": "CountrySet",
      "type": "event"
    },
    {
      "anonymous": false,
      "inputs": [
        {
          "indexed": true,
          "internalType": "string",
          "name": "investorId",
          "type": "string"
        },
        {
          "indexed": false,
          "internalType": "bytes32",
          "name": "collisionHash",
          "type": "bytes32"
        }
      ],
      "name": "InvestorRegistered",
      "type": "event"
    },
    {
      "anonymous": false,
      "inputs": [
        {
          "indexed": true,
          "internalType": "address",
          "name": "previousOwner",
          "type": "address"
        },
        {
          "indexed": true,
          "internalType": "address",
          "name": "newOwner",
          "type": "address"
        }
      ],
      "name": "OwnershipTransferred",
      "type": "event"
    },
    {
      "anonymous": false,
      "inputs": [
        {
          "indexed": true,
          "internalType": "address",
          "name": "wallet",
          "type": "address"
        },
        {
          "indexed": true,
          "internalType": "string",
          "name": "investorId",
          "type": "string"
        }
      ],
      "name": "WalletAdded",
      "type": "event"
    },
    {
      "inputs": [
        {
          "internalType": "address",
          "name": "wallet",
          "type": "address"
        },
        {
          "internalType": "string",
          "name": "investorId",
          "type": "string"
        }
      ],
      "name": "addWallet",
      "outputs": [],
      "stateMutability": "nonpayable",
      "type": "function"
    },
    {
      "inputs": [
        {
          "internalType": "string",
          "name": "investorId",
          "type": "string"
        },
        {
          "internalType": "uint256",
          "name": "attrId",
          "type": "uint256"
        }
      ],
      "name": "getAttribute",
      "outputs": [
        {
          "internalType": "uint256",
          "name": "value",
          "type": "uint256"
        },
        {
          "internalType": "uint256",
          "name": "expiry",
          "type": "uint256"
        },
        {
          "internalType": "bytes32",
          "name": "proofHash",
          "type": "bytes32"
        }
      ],
      "stateMutability": "view",
      "type": "function"
    },
    {
      "inputs": [
        {
          "internalType": "string",
          "name": "investorId",
          "type": "string"
        }
      ],
      "name": "getCountry",
      "outputs": [
        {
          "internalType": "string",
          "name": "",
          "type": "string"
        }
      ],
      "stateMutability": "view",
      "type": "function"
    },
    {
      "inputs": [],
      "name": "investorCount",
      "outputs": [
        {
          "internalType": "uint256",
          "name": "",
          "type": "uint256"
        }
      ],
      "stateMutability": "view",
      "type": "function"
    },
    {
      "inputs": [
        {
          "internalType": "string",
          "name": "investorId",
          "type": "string"
        }
      ],
      "name": "investorExists",
      "outputs": [
        {
          "internalType": "bool",
          "name": "",
          "type": "bool"
        }
      ],
      "stateMutability": "view",
      "type": "function"
    },
    {
      "inputs": [
        {
          "internalType": "address",
          "name": "wallet",
          "type": "address"
        }
      ],
      "name": "investorOf",
      "outputs": [
        {
          "internalType": "string",
          "name": "",
          "type": "string"
        }
      ],
      "stateMutability": "view",
      "type": "function"
    },
    {
      "inputs": [
        {
          "internalType": "string",
          "name": "investorId",
          "type": "string"
        },
        {
          "internalType": "uint256",
          "name": "attrId",
          "type": "uint256"
        }
      ],
      "name": "isAttributeValid",
      "outputs": [
        {
          "internalType": "bool",
          "name": "",
          "type": "bool"
        }
      ],
      "stateMutability": "view",
      "type": "function"
    },
    {
      "inputs": [
        {
          "internalType": "address",
          "name": "wallet",
          "type": "address"
        }
      ],
      "name": "isWalletRegistered",
      "outputs": [
        {
          "internalType": "bool",
          "name": "",
          "type": "bool"
        }
      ],
      "stateMutability": "view",
      "type": "function"
    },
    {
      "inputs": [],
      "name": "owner",
      "outputs": [
        {
          "internalType": "address",
          "name": "",
          "type": "address"
        }
      ],
      "stateMutability": "view",
      "type": "function"
    },
    {
      "inputs": [
        {
          "internalType": "string",
          "name": "investorId",
          "type": "string"
        },
        {
          "internalType": "bytes32",
          "name": "collisionHash",
          "type": "bytes32"
        }
      ],
      "name": "registerInvestor",
      "outputs": [],
      "stateMutability": "nonpayable",
      "type": "function"
    },
    {
      "inputs": [],
      "name": "renounceOwnership",
      "outputs": [],
      "stateMutability": "nonpayable",
      "type": "function"
    },
    {
      "inputs": [
        {
          "internalType": "string",
          "name": "investorId",
          "type": "string"
        },
        {
          "internalType": "uint256",
          "name": "attrId",
          "type": "uint256"
        },
        {
          "internalType": "uint256",
          "name": "value",
          "type": "uint256"
        },
        {
          "internalType": "uint256",
          "name": "expiry",
          "type": "uint256"
        },
        {
          "internalType": "bytes32",
          "name": "proofHash",
          "type": "bytes32"
        }
      ],
      "name": "setAttribute",
      "outputs": [],
      "stateMutability": "nonpayable",
      "type": "function"
    },
    {
      "inputs": [
        {
          "internalType": "string",
          "name": "investorId",
          "type": "string"
        },
        {
          "internalType": "string",
          "name": "country",
          "type": "string"
        }
      ],
      "name": "setCountry",
      "outputs": [],
      "stateMutability": "nonpayable",
      "type": "function"
    },
    {
      "inputs": [
        {
          "internalType": "address",
          "name": "newOwner",
          "type": "address"
        }
      ],
      "name": "transferOwnership",
      "outputs": [],
      "stateMutability": "nonpayable",
      "type": "function"
    },
    {
      "inputs": [
        {
          "internalType": "string",
          "name": "investorId",
          "type": "string"
        }
      ],
      "name": "walletsOf",
      "outputs": [
        {
          "internalType": "address[]",
          "name": "",
          "type": "address[]"
        }
      ],
      "stateMutability": "view",
      "type": "function"
    }
  ],
  "bytecode": "0x608060405234801561001057600080fd5b5060405161143238038061143283398101604081905261002f916100c2565b806001600160a01b03811661005e57604051631e4fbdf760e01b81526000600482015260240160405180910390fd5b61006781610072565b5050600180556100f2565b600080546001600160a01b038381166001600160a01b0319831681178455604051919092169283917f8be0079c531659141344cd1fd0a4f28419497f9722a3daafe3b4186f6b6457e09190a35050565b6000602082840312156100d457600080fd5b81516001600160a01b03811681146100eb57600080fd5b9392505050565b611331806101016000396000f3fe608060405234801561001057600080fd5b50600436106100f55760003560e01c8063848924cb11610097578063d7e64c0011610066578063d7e64c0014610214578063dec715f014610225578063f2fde38b14610238578063f711da4d1461024b57600080fd5b8063848924cb146101c05780638da5cb5b146101d3578063c28aafb1146101ee578063d1d6f9701461020157600080fd5b80635123bbd3116100d35780635123bbd314610157578063715018a614610185578063745941b01461018d5780637f247e49146101ad57600080fd5b806311a5e6cf146100fa5780633781fb091461010f5780634dffeb6914610137575b600080fd5b61010d610108366004610e83565b61025e565b005b61012261011d366004610eef565b610398565b60405190151581526020015b60405180910390f35b61014a610145366004610f57565b61045b565b60405161012e9190610f72565b61016a610165366004610eef565b610507565b6040805193845260208401929092529082015260600161012e565b61010d6105c0565b6101a061019b366004610fc1565b6105d4565b60405161012e9190611003565b6101226101bb366004610f57565b610651565b61014a6101ce366004610fc1565b610681565b6000546040516001600160a01b03909116815260200161012e565b61010d6101fc366004611050565b61076e565b61010d61020f366004610eef565b61094f565b60065460405190815260200161012e565b610122610233366004610fc1565b610b50565b61010d610246366004610f57565b610b7f565b61010d6102593660046110a3565b610bbd565b610266610d93565b61026e610dc0565b60038484604051610280929190611105565b9081526040519081900360200190205460ff166102b85760405162461bcd60e51b81526004016102af90611115565b60405180910390fd5b806103055760405162461bcd60e51b815260206004820152601760248201527f436f756e7472792063616e6e6f7420626520656d70747900000000000000000060448201526064016102af565b818160038686604051610319929190611105565b908152602001604051809103902060020191826103379291906111e4565b508383604051610348929190611105565b60405180910390207f982821f57db8e4c68242542626bb830f663332f0806cd80b4210ba382e76ccf483836040516103819291906112a5565b60405180910390a261039260018055565b50505050565b6000600384846040516103ac929190611105565b9081526040519081900360200190205460ff166103db5760405162461bcd60e51b81526004016102af90611115565b6000600385856040516103ef929190611105565b90815260408051602092819003830190206000868152600391820190935291209081015490915060ff16610427576000915050610454565b6000816001015411801561043e5750806001015442115b1561044d576000915050610454565b5460011490505b9392505050565b6001600160a01b038116600090815260026020526040902080546060919061048290611162565b80601f01602080910402602001604051908101604052809291908181526020018280546104ae90611162565b80156104fb5780601f106104d0576101008083540402835291602001916104fb565b820191906000526020600020905b8154815290600101906020018083116104de57829003601f168201915b50505050509050919050565b60008060006003868660405161051e929190611105565b9081526040519081900360200190205460ff1661054d5760405162461bcd60e51b81526004016102af90611115565b600060038787604051610561929190611105565b90815260408051602092819003830190206000888152600391820190935291209081015490915060ff16156105ab57806000015481600101548260020154935093509350506105b7565b50600092508291508190505b93509350939050565b6105c8610d93565b6105d26000610dea565b565b6060600483836040516105e8929190611105565b908152604080519182900360209081018320805480830285018301909352828452919083018282801561064457602002820191906000526020600020905b81546001600160a01b03168152600190910190602001808311610626575b5050505050905092915050565b6001600160a01b0381166000908152600260205260408120805482919061067790611162565b9050119050919050565b606060038383604051610695929190611105565b9081526040519081900360200190205460ff166106c45760405162461bcd60e51b81526004016102af90611115565b600383836040516106d6929190611105565b908152602001604051809103902060020180546106f290611162565b80601f016020809104026020016040519081016040528092919081815260200182805461071e90611162565b80156106445780601f1061074057610100808354040283529160200191610644565b820191906000526020600020905b81548152906001019060200180831161074e575093979650505050505050565b610776610d93565b61077e610dc0565b6001600160a01b0383166107d45760405162461bcd60e51b815260206004820152601d60248201527f57616c6c65742063616e6e6f74206265207a65726f206164647265737300000060448201526064016102af565b600382826040516107e6929190611105565b9081526040519081900360200190205460ff166108155760405162461bcd60e51b81526004016102af90611115565b6001600160a01b0383166000908152600260205260409020805461083890611162565b1590506108875760405162461bcd60e51b815260206004820152601960248201527f57616c6c657420616c726561647920726567697374657265640000000000000060448201526064016102af565b6001600160a01b03831660009081526002602052604090206108aa8284836111e4565b50600482826040516108bd929190611105565b908152604051602091819003820181208054600181018255600091825292902090910180546001600160a01b0319166001600160a01b0386161790556109069083908390611105565b604051908190038120906001600160a01b038516907fca84b5dcf6cad89fa3f04555778fabf3d3cd4d90416b33b1ff6b921e197be46a90600090a361094a60018055565b505050565b610957610d93565b61095f610dc0565b816109ac5760405162461bcd60e51b815260206004820152601b60248201527f496e766573746f722049442063616e6e6f7420626520656d707479000000000060448201526064016102af565b600383836040516109be929190611105565b9081526040519081900360200190205460ff1615610a1e5760405162461bcd60e51b815260206004820152601760248201527f496e766573746f7220616c72656164792065786973747300000000000000000060448201526064016102af565b60008181526005602052604090205460ff1615610a715760405162461bcd60e51b815260206004820152601160248201527012185cda08185b1c9958591e481d5cd959607a1b60448201526064016102af565b600160038484604051610a85929190611105565b908152604051908190036020018120805492151560ff19909316929092179091558190600390610ab89086908690611105565b9081526040805160209281900383019020600190810193909355600084815260059092528120805460ff19169092179091556006805491610af8836112d4565b91905055508282604051610b0d929190611105565b604051908190038120828252907f24347344a5c236e65e38b9904f166382f59229660beb5e178efc0efdf9b8e90b9060200160405180910390a261094a60018055565b600060038383604051610b64929190611105565b9081526040519081900360200190205460ff16905092915050565b610b87610d93565b6001600160a01b038116610bb157604051631e4fbdf760e01b8152600060048201526024016102af565b610bba81610dea565b50565b610bc5610d93565b610bcd610dc0565b60038686604051610bdf929190611105565b9081526040519081900360200190205460ff16610c0e5760405162461bcd60e51b81526004016102af90611115565b83610c525760405162461bcd60e51b8152602060048201526014602482015273125b9d985b1a5908185d1d1c9a589d5d1948125160621b60448201526064016102af565b6002831115610ca35760405162461bcd60e51b815260206004820152601760248201527f496e76616c6964206174747269627574652076616c756500000000000000000060448201526064016102af565b60405180608001604052808481526020018381526020018281526020016001151581525060038787604051610cd9929190611105565b9081526040805160209281900383018120600089815260039182018552839020855181559385015160018501559184015160028401556060909301519101805460ff1916911515919091179055610d339087908790611105565b604080519182900382208683526020830186905290820184905260608201839052907f379fd33feac6289d4b193f3df8593c654abe44fd4b2b29d13f6a8538fde0e6df9060800160405180910390a2610d8b60018055565b505050505050565b6000546001600160a01b031633146105d25760405163118cdaa760e01b81523360048201526024016102af565b600260015403610de357604051633ee5aeb560e01b815260040160405180910390fd5b6002600155565b600080546001600160a01b038381166001600160a01b0319831681178455604051919092169283917f8be0079c531659141344cd1fd0a4f28419497f9722a3daafe3b4186f6b6457e09190a35050565b60008083601f840112610e4c57600080fd5b50813567ffffffffffffffff811115610e6457600080fd5b602083019150836020828501011115610e7c57600080fd5b9250929050565b60008060008060408587031215610e9957600080fd5b843567ffffffffffffffff80821115610eb157600080fd5b610ebd88838901610e3a565b90965094506020870135915080821115610ed657600080fd5b50610ee387828801610e3a565b95989497509550505050565b600080600060408486031215610f0457600080fd5b833567ffffffffffffffff811115610f1b57600080fd5b610f2786828701610e3a565b909790965060209590950135949350505050565b80356001600160a01b0381168114610f5257600080fd5b919050565b600060208284031215610f6957600080fd5b61045482610f3b565b60006020808352835180602085015260005b81811015610fa057858101830151858201604001528201610f84565b506000604082860101526040601f19601f8301168501019250505092915050565b60008060208385031215610fd457600080fd5b823567ffffffffffffffff811115610feb57600080fd5b610ff785828601610e3a565b90969095509350505050565b6020808252825182820181905260009190848201906040850190845b818110156110445783516001600160a01b03168352928401929184019160010161101f565b50909695505050505050565b60008060006040848603121561106557600080fd5b61106e84610f3b565b9250602084013567ffffffffffffffff81111561108a57600080fd5b61109686828701610e3a565b9497909650939450505050565b60008060008060008060a087890312156110bc57600080fd5b863567ffffffffffffffff8111156110d357600080fd5b6110df89828a01610e3a565b909a90995060208901359860408101359850606081013597506080013595509350505050565b8183823760009101908152919050565b60208082526017908201527f496e766573746f7220646f6573206e6f74206578697374000000000000000000604082015260600190565b634e487b7160e01b600052604160045260246000fd5b600181811c9082168061117657607f821691505b60208210810361119657634e487b7160e01b600052602260045260246000fd5b50919050565b601f82111561094a576000816000526020600020601f850160051c810160208610156111c55750805b601f850160051c820191505b81811015610d8b578281556001016111d1565b67ffffffffffffffff8311156111fc576111fc61114c565b6112108361120a8354611162565b8361119c565b6000601f841160018114611244576000851561122c5750838201355b600019600387901b1c1916600186901b17835561129e565b600083815260209020601f19861690835b828110156112755786850135825560209485019460019092019101611255565b50868210156112925760001960f88860031b161c19848701351681555b505060018560011b0183555b5050505050565b60208152816020820152818360408301376000818301604090810191909152601f909201601f19160101919050565b6000600182016112f457634e487b7160e01b600052601160045260246000fd5b506001019056fea26469706673582212205c327f70933fe0074953362a0b73f6c327150727e31021ecea0f86adaba7a2a564736f6c63430008180033",
  "linkReferences": {},
  "deployedLinkReferences": {}
}