{
  "_format": "hh-sol-artifact-1",
  "contractName": "StableCoinFactory",
  "sourceName": "contracts/StableCoinFactory.sol",
  "abi": [
    {
      "inputs": [
        {
          "internalType": "address",
          "name": "initialOwner",
          "type": "address"
        }
      ],
      "stateMutability": "nonpayable",
      "type": "constructor"
    },
    {
      "inputs": [
        {
          "internalType": "address",
          "name": "owner",
          "type": "address"
        }
      ],
      "name": "OwnableInvalidOwner",
      "type": "error"
    },
    {
      "inputs": [
        {
          "internalType": "address",
          "name": "account",
          "type": "address"
        }
      ],
      "name": "OwnableUnauthorizedAccount",
      "type": "error"
    },
    {
      "inputs": [],
      "name": "ReentrancyGuardReentrantCall",
      "type": "error"
    },
    {
      "anonymous": false,
      "inputs": [
        {
          "indexed": true,
          "internalType": "address",
          "name": "issuer",
          "type": "address"
        },
        {
          "indexed": false,
          "internalType": "bool",
          "name": "authorized",
          "type": "bool"
        }
      ],
      "name": "IssuerAuthorized",
      "type": "event"
    },
    {
      "anonymous": false,
      "inputs": [
        {
          "indexed": true,
          "internalType": "address",
          "name": "previousOwner",
          "type": "address"
        },
        {
          "indexed": true,
          "internalType": "address",
          "name": "newOwner",
          "type": "address"
        }
      ],
      "name": "OwnershipTransferred",
      "type": "event"
    },
    {
      "anonymous": false,
      "inputs": [
        {
          "indexed": true,
          "internalType": "address",
          "name": "tokenAddress",
          "type": "address"
        },
        {
          "indexed": false,
          "internalType": "string",
          "name": "name",
          "type": "string"
        },
        {
          "indexed": false,
          "internalType": "string",
          "name": "symbol",
          "type": "string"
        },
        {
          "indexed": true,
          "internalType": "address",
          "name": "issuer",
          "type": "address"
        }
      ],
      "name": "StableCoinCreated",
      "type": "event"
    },
    {
      "inputs": [
        {
          "internalType": "address",
          "name": "",
          "type": "address"
        }
      ],
      "name": "authorizedIssuers",
      "outputs": [
        {
          "internalType": "bool",
          "name": "",
          "type": "bool"
        }
      ],
      "stateMutability": "view",
      "type": "function"
    },
    {
      "inputs": [
        {
          "internalType": "string",
          "name": "name",
          "type": "string"
        },
        {
          "internalType": "string",
          "name": "symbol",
          "type": "string"
        },
        {
          "internalType": "uint8",
          "name": "decimals",
          "type": "uint8"
        },
        {
          "internalType": "uint256",
          "name": "maxSupply",
          "type": "uint256"
        }
      ],
      "name": "createStableCoin",
      "outputs": [
        {
          "internalType": "address",
          "name": "",
          "type": "address"
        }
      ],
      "stateMutability": "nonpayable",
      "type": "function"
    },
    {
      "inputs": [
        {
          "internalType": "string",
          "name": "symbol",
          "type": "string"
        }
      ],
      "name": "getStableCoinBySymbol",
      "outputs": [
        {
          "internalType": "address",
          "name": "",
          "type": "address"
        }
      ],
      "stateMutability": "view",
      "type": "function"
    },
    {
      "inputs": [],
      "name": "getStableCoinCount",
      "outputs": [
        {
          "internalType": "uint256",
          "name": "",
          "type": "uint256"
        }
      ],
      "stateMutability": "view",
      "type": "function"
    },
    {
      "inputs": [
        {
          "internalType": "uint256",
          "name": "index",
          "type": "uint256"
        }
      ],
      "name": "getStableCoinInfo",
      "outputs": [
        {
          "components": [
            {
              "internalType": "address",
              "name": "tokenAddress",
              "type": "address"
            },
            {
              "internalType": "string",
              "name": "name",
              "type": "string"
            },
            {
              "internalType": "string",
              "name": "symbol",
              "type": "string"
            },
            {
              "internalType": "uint8",
              "name": "decimals",
              "type": "uint8"
            },
            {
              "internalType": "uint256",
              "name": "maxSupply",
              "type": "uint256"
            },
            {
              "internalType": "address",
              "name": "issuer",
              "type": "address"
            },
            {
              "internalType": "uint256",
              "name": "createdAt",
              "type": "uint256"
            },
            {
              "internalType": "bool",
              "name": "active",
              "type": "bool"
            }
          ],
          "internalType": "struct StableCoinFactory.StableCoinInfo",
          "name": "",
          "type": "tuple"
        }
      ],
      "stateMutability": "view",
      "type": "function"
    },
    {
      "inputs": [
        {
          "internalType": "address",
          "name": "issuer",
          "type": "address"
        }
      ],
      "name": "getStableCoinsByIssuer",
      "outputs": [
        {
          "internalType": "address[]",
          "name": "",
          "type": "address[]"
        }
      ],
      "stateMutability": "view",
      "type": "function"
    },
    {
      "inputs": [],
      "name": "owner",
      "outputs": [
        {
          "internalType": "address",
          "name": "",
          "type": "address"
        }
      ],
      "stateMutability": "view",
      "type": "function"
    },
    {
      "inputs": [],
      "name": "renounceOwnership",
      "outputs": [],
      "stateMutability": "nonpayable",
      "type": "function"
    },
    {
      "inputs": [
        {
          "internalType": "address",
          "name": "issuer",
          "type": "address"
        },
        {
          "internalType": "bool",
          "name": "authorized",
          "type": "bool"
        }
      ],
      "name": "setAuthorizedIssuer",
      "outputs": [],
      "stateMutability": "nonpayable",
      "type": "function"
    },
    {
      "inputs": [
        {
          "internalType": "uint256",
          "name": "",
          "type": "uint256"
        }
      ],
      "name": "stableCoins",
      "outputs": [
        {
          "internalType": "address",
          "name": "tokenAddress",
          "type": "address"
        },
        {
          "internalType": "string",
          "name": "name",
          "type": "string"
        },
        {
          "internalType": "string",
          "name": "symbol",
          "type": "string"
        },
        {
          "internalType": "uint8",
          "name": "decimals",
          "type": "uint8"
        },
        {
          "internalType": "uint256",
          "name": "maxSupply",
          "type": "uint256"
        },
        {
          "internalType": "address",
          "name": "issuer",
          "type": "address"
        },
        {
          "internalType": "uint256",
          "name": "createdAt",
          "type": "uint256"
        },
        {
          "internalType": "bool",
          "name": "active",
          "type": "bool"
        }
      ],
      "stateMutability": "view",
      "type": "function"
    },
    {
      "inputs": [
        {
          "internalType": "string",
          "name": "",
          "type": "string"
        }
      ],
      "name": "symbolToAddress",
      "outputs": [
        {
          "internalType": "address",
          "name": "",
          "type": "address"
        }
      ],
      "stateMutability": "view",
      "type": "function"
    },
    {
      "inputs": [
        {
          "internalType": "address",
          "name": "newOwner",
          "type": "address"
        }
      ],
      "name": "transferOwnership",
      "outputs": [],
      "stateMutability": "nonpayable",
      "type": "function"
    }
  ],
  "bytecode": "0x608060405234801561001057600080fd5b50604051612aa2380380612aa283398101604081905261002f916100c2565b806001600160a01b03811661005e57604051631e4fbdf760e01b81526000600482015260240160405180910390fd5b61006781610072565b5050600180556100f2565b600080546001600160a01b038381166001600160a01b0319831681178455604051919092169283917f8be0079c531659141344cd1fd0a4f28419497f9722a3daafe3b4186f6b6457e09190a35050565b6000602082840312156100d457600080fd5b81516001600160a01b03811681146100eb57600080fd5b9392505050565b6129a1806101016000396000f3fe60806040523480156200001157600080fd5b5060043610620000c35760003560e01c8063715018a6116200007a578063715018a614620001ca5780638da5cb5b14620001d4578063e746820c14620001e6578063f2fde38b14620001fd578063f731fa0f1462000214578063f9ed804d146200024b57600080fd5b80630948992014620000c85780630d96ee5214620000f7578063357061e1146200011d57806348455cfe1462000136578063596cc17b1462000163578063708d5bbc1462000193575b600080fd5b620000df620000d936600462000d99565b6200025d565b604051620000ee919062000e07565b60405180910390f35b6200010e6200010836600462000ed4565b620004d1565b604051620000ee919062000ef9565b620001346200012e36600462000f48565b620006cf565b005b6200014d6200014736600462000d99565b62000738565b604051620000ee98979695949392919062000f88565b6200017a62000174366004620010a4565b620008c9565b6040516001600160a01b039091168152602001620000ee565b6200017a620001a4366004620010a4565b80516020818301810180516003825292820191909301209152546001600160a01b031681565b62000134620008fc565b6000546001600160a01b03166200017a565b6200017a620001f7366004620010dd565b62000914565b620001346200020e36600462000ed4565b62000c9d565b6200023a6200022536600462000ed4565b60046020526000908152604090205460ff1681565b6040519015158152602001620000ee565b600254604051908152602001620000ee565b620002bd60405180610100016040528060006001600160a01b031681526020016060815260200160608152602001600060ff1681526020016000815260200160006001600160a01b03168152602001600081526020016000151581525090565b60025482106200030a5760405162461bcd60e51b8152602060048201526013602482015272496e646578206f7574206f6620626f756e647360681b60448201526064015b60405180910390fd5b6002828154811062000320576200032062001169565b600091825260209182902060408051610100810190915260089092020180546001600160a01b03168252600181018054929391929184019162000363906200117f565b80601f016020809104026020016040519081016040528092919081815260200182805462000391906200117f565b8015620003e25780601f10620003b657610100808354040283529160200191620003e2565b820191906000526020600020905b815481529060010190602001808311620003c457829003601f168201915b50505050508152602001600282018054620003fd906200117f565b80601f01602080910402602001604051908101604052809291908181526020018280546200042b906200117f565b80156200047c5780601f1062000450576101008083540402835291602001916200047c565b820191906000526020600020905b8154815290600101906020018083116200045e57829003601f168201915b5050509183525050600382015460ff90811660208301526004830154604083015260058301546001600160a01b0316606083015260068301546080830152600790920154909116151560a09091015292915050565b60606000805b6002548110156200057557836001600160a01b03166002828154811062000502576200050262001169565b60009182526020909120600560089092020101546001600160a01b0316148015620005565750600281815481106200053e576200053e62001169565b600091825260209091206007600890920201015460ff165b156200056c57816200056881620011bb565b9250505b600101620004d7565b5060008167ffffffffffffffff81111562000594576200059462000ff9565b604051908082528060200260200182016040528015620005be578160200160208202803683370190505b5090506000805b600254811015620006c557856001600160a01b031660028281548110620005f057620005f062001169565b60009182526020909120600560089092020101546001600160a01b0316148015620006445750600281815481106200062c576200062c62001169565b600091825260209091206007600890920201015460ff165b15620006bc576002818154811062000660576200066062001169565b600091825260209091206008909102015483516001600160a01b039091169084908490811062000694576200069462001169565b6001600160a01b039092166020928302919091019091015281620006b881620011bb565b9250505b600101620005c5565b5090949350505050565b620006d962000ce1565b6001600160a01b038216600081815260046020908152604091829020805460ff191685151590811790915591519182527f323f1985f95ab4281ac5356feae087f07598411565971dd57673e77bf9aecea8910160405180910390a25050565b600281815481106200074957600080fd5b6000918252602090912060089091020180546001820180546001600160a01b039092169350906200077a906200117f565b80601f0160208091040260200160405190810160405280929190818152602001828054620007a8906200117f565b8015620007f95780601f10620007cd57610100808354040283529160200191620007f9565b820191906000526020600020905b815481529060010190602001808311620007db57829003601f168201915b50505050509080600201805462000810906200117f565b80601f01602080910402602001604051908101604052809291908181526020018280546200083e906200117f565b80156200088f5780601f1062000863576101008083540402835291602001916200088f565b820191906000526020600020905b8154815290600101906020018083116200087157829003601f168201915b5050506003840154600485015460058601546006870154600790970154959660ff938416969295506001600160a01b039091169350911688565b6000600382604051620008dd9190620011e3565b908152604051908190036020019020546001600160a01b031692915050565b6200090662000ce1565b62000912600062000d10565b565b60006200092062000d60565b3360009081526004602052604090205460ff16806200094957506000546001600160a01b031633145b620009975760405162461bcd60e51b815260206004820152601760248201527f4e6f7420617574686f72697a656420746f206973737565000000000000000000604482015260640162000301565b60006001600160a01b0316600385604051620009b49190620011e3565b908152604051908190036020019020546001600160a01b03161462000a145760405162461bcd60e51b815260206004820152601560248201527453796d626f6c20616c72656164792065786973747360581b604482015260640162000301565b6000821162000a705760405162461bcd60e51b815260206004820152602160248201527f4d617820737570706c79206d7573742062652067726561746572207468616e206044820152600360fc1b606482015260840162000301565b6000858585853360405162000a859062000d8b565b62000a9595949392919062001201565b604051809103906000f08015801562000ab2573d6000803e3d6000fd5b5060408051610100810182526001600160a01b038381168252602082018a815292820189905260ff88166060830152608082018790523360a08301524260c0830152600160e0830181905260028054918201815560005282517f405787fa12a823e0f2b7631cc41b3ba8828b3321ca811111fa75cd3aa3bb5ace600890920291820180546001600160a01b0319169190931617825592519394508493919283927f405787fa12a823e0f2b7631cc41b3ba8828b3321ca811111fa75cd3aa3bb5acf9091019062000b839082620012a9565b506040820151600282019062000b9a9082620012a9565b5060608201516003808301805460ff90931660ff199384161790556080840151600484015560a08401516005840180546001600160a01b039092166001600160a01b031990921691909117905560c0840151600684015560e090930151600790920180549215159290911691909117905560405183919062000c1e908a90620011e3565b90815260405190819003602001812080546001600160a01b039384166001600160a01b031990911617905533918416907fa518c558f01531e210d8a246fe4cfda88e7cbe4d86bb78d52c9113ee44ea441e9062000c7f908c908c9062001376565b60405180910390a35091505062000c9560018055565b949350505050565b62000ca762000ce1565b6001600160a01b03811662000cd357604051631e4fbdf760e01b81526000600482015260240162000301565b62000cde8162000d10565b50565b6000546001600160a01b03163314620009125760405163118cdaa760e01b815233600482015260240162000301565b600080546001600160a01b038381166001600160a01b0319831681178455604051919092169283917f8be0079c531659141344cd1fd0a4f28419497f9722a3daafe3b4186f6b6457e09190a35050565b60026001540362000d8457604051633ee5aeb560e01b815260040160405180910390fd5b6002600155565b6115c380620013a983390190565b60006020828403121562000dac57600080fd5b5035919050565b60005b8381101562000dd057818101518382015260200162000db6565b50506000910152565b6000815180845262000df381602086016020860162000db3565b601f01601f19169290920160200192915050565b602080825282516001600160a01b031682820152820151610100604083018190526000919062000e3c61012085018362000dd9565b91506040850151601f1985840301606086015262000e5b838262000dd9565b925050606085015162000e73608086018260ff169052565b50608085015160a085015260a085015162000e9960c08601826001600160a01b03169052565b5060c085015160e085015260e0850151620006c58286018215159052565b80356001600160a01b038116811462000ecf57600080fd5b919050565b60006020828403121562000ee757600080fd5b62000ef28262000eb7565b9392505050565b6020808252825182820181905260009190848201906040850190845b8181101562000f3c5783516001600160a01b03168352928401929184019160010162000f15565b50909695505050505050565b6000806040838503121562000f5c57600080fd5b62000f678362000eb7565b91506020830135801515811462000f7d57600080fd5b809150509250929050565b6001600160a01b0389811682526101006020830181905260009162000fb08483018c62000dd9565b9150838203604085015262000fc6828b62000dd9565b60ff999099166060850152608084019790975250509290931660a083015260c082015290151560e0909101529392505050565b634e487b7160e01b600052604160045260246000fd5b600082601f8301126200102157600080fd5b813567ffffffffffffffff808211156200103f576200103f62000ff9565b604051601f8301601f19908116603f011681019082821181831017156200106a576200106a62000ff9565b816040528381528660208588010111156200108457600080fd5b836020870160208301376000602085830101528094505050505092915050565b600060208284031215620010b757600080fd5b813567ffffffffffffffff811115620010cf57600080fd5b62000c95848285016200100f565b60008060008060808587031215620010f457600080fd5b843567ffffffffffffffff808211156200110d57600080fd5b6200111b888389016200100f565b955060208701359150808211156200113257600080fd5b5062001141878288016200100f565b935050604085013560ff811681146200115957600080fd5b9396929550929360600135925050565b634e487b7160e01b600052603260045260246000fd5b600181811c908216806200119457607f821691505b602082108103620011b557634e487b7160e01b600052602260045260246000fd5b50919050565b600060018201620011dc57634e487b7160e01b600052601160045260246000fd5b5060010190565b60008251620011f781846020870162000db3565b9190910192915050565b60a0815260006200121660a083018862000dd9565b82810360208401526200122a818862000dd9565b60ff969096166040840152505060608101929092526001600160a01b031660809091015292915050565b601f821115620012a4576000816000526020600020601f850160051c810160208610156200127f5750805b601f850160051c820191505b81811015620012a0578281556001016200128b565b5050505b505050565b815167ffffffffffffffff811115620012c657620012c662000ff9565b620012de81620012d784546200117f565b8462001254565b602080601f831160018114620013165760008415620012fd5750858301515b600019600386901b1c1916600185901b178555620012a0565b600085815260208120601f198616915b82811015620013475788860151825594840194600190910190840162001326565b5085821015620013665787850151600019600388901b60f8161c191681555b5050505050600190811b01905550565b6040815260006200138b604083018562000dd9565b82810360208401526200139f818562000dd9565b9594505050505056fe6080604052600a805461ffff19166101011790553480156200002057600080fd5b50604051620015c3380380620015c38339810160408190526200004391620001f1565b808585600362000054838262000332565b50600462000063828262000332565b5050506001600160a01b0381166200009557604051631e4fbdf760e01b81526000600482015260240160405180910390fd5b620000a081620000d7565b5060016006556007620000b4858262000332565b50506008805460ff191660ff939093169290921790915560095550620003fe9050565b600580546001600160a01b038381166001600160a01b0319831681179093556040519116919082907f8be0079c531659141344cd1fd0a4f28419497f9722a3daafe3b4186f6b6457e090600090a35050565b634e487b7160e01b600052604160045260246000fd5b600082601f8301126200015157600080fd5b81516001600160401b03808211156200016e576200016e62000129565b604051601f8301601f19908116603f0116810190828211818310171562000199576200019962000129565b8160405283815260209250866020858801011115620001b757600080fd5b600091505b83821015620001db5785820183015181830184015290820190620001bc565b6000602085830101528094505050505092915050565b600080600080600060a086880312156200020a57600080fd5b85516001600160401b03808211156200022257600080fd5b6200023089838a016200013f565b965060208801519150808211156200024757600080fd5b5062000256888289016200013f565b945050604086015160ff811681146200026e57600080fd5b6060870151608088015191945092506001600160a01b03811681146200029357600080fd5b809150509295509295909350565b600181811c90821680620002b657607f821691505b602082108103620002d757634e487b7160e01b600052602260045260246000fd5b50919050565b601f8211156200032d576000816000526020600020601f850160051c81016020861015620003085750805b601f850160051c820191505b81811015620003295782815560010162000314565b5050505b505050565b81516001600160401b038111156200034e576200034e62000129565b62000366816200035f8454620002a1565b84620002dd565b602080601f8311600181146200039e5760008415620003855750858301515b600019600386901b1c1916600185901b17855562000329565b600085815260208120601f198616915b82811015620003cf57888601518255948401946001909101908401620003ae565b5085821015620003ee5787850151600019600388901b60f8161c191681555b5050505050600190811b01905550565b6111b5806200040e6000396000f3fe608060405234801561001057600080fd5b506004361061018e5760003560e01c80637d55094d116100de578063a9059cbb11610097578063d5abeb0111610071578063d5abeb0114610347578063dd62ed3e1461034f578063f2fde38b14610388578063f40ed0d81461039b57600080fd5b8063a9059cbb146102fe578063ac869cd814610311578063d05166501461032457600080fd5b80637d55094d1461029b5780638456cb59146102a35780638da5cb5b146102ab57806395d89b41146102c65780639fd6db12146102ce578063a5410a66146102db57600080fd5b80633f4ba83a1161014b5780634d754715116101255780634d754715146102465780635c975abb1461025857806370a082311461026a578063715018a61461029357600080fd5b80633f4ba83a1461021857806340c10f191461022057806342966c681461023357600080fd5b806306fdde0314610193578063095ea7b3146101b157806318160ddd146101d457806322dcb0a7146101e657806323b872dd146101f0578063313ce56714610203575b600080fd5b61019b6103ae565b6040516101a89190610fa9565b60405180910390f35b6101c46101bf366004611014565b610440565b60405190151581526020016101a8565b6002545b6040519081526020016101a8565b6101ee61045a565b005b6101c46101fe36600461103e565b6104c4565b60085460405160ff90911681526020016101a8565b6101ee6104e8565b6101ee61022e366004611014565b6104fa565b6101ee61024136600461107a565b610662565b600a546101c490610100900460ff1681565b600554600160a01b900460ff166101c4565b6101d8610278366004611093565b6001600160a01b031660009081526020819052604090205490565b6101ee610759565b6101ee61076b565b6101ee6107bb565b6005546040516001600160a01b0390911681526020016101a8565b61019b6107cb565b600a546101c49060ff1681565b6101c46102e9366004611093565b600b6020526000908152604090205460ff1681565b6101c461030c366004611014565b6107da565b6101ee61031f3660046110b5565b6107e8565b6101c4610332366004611093565b600c6020526000908152604090205460ff1681565b6009546101d8565b6101d861035d3660046110f1565b6001600160a01b03918216600090815260016020908152604080832093909416825291909152205490565b6101ee610396366004611093565b610850565b6101ee6103a93660046110b5565b61088b565b6060600380546103bd90611124565b80601f01602080910402602001604051908101604052809291908181526020018280546103e990611124565b80156104365780601f1061040b57610100808354040283529160200191610436565b820191906000526020600020905b81548152906001019060200180831161041957829003601f168201915b5050505050905090565b60003361044e8185856108eb565b60019150505b92915050565b6104626108fd565b600a805460ff610100808304821615810261ff001990931692909217928390556040517f8f16f96db1455c60de696f074344b385e823f9368ac943b3684ba1a888962ca0936104ba9390049091161515815260200190565b60405180910390a1565b6000336104d285828561092a565b6104dd8585856109a9565b506001949350505050565b6104f06108fd565b6104f8610a08565b565b6105026108fd565b61050a610a58565b600a5460ff166105575760405162461bcd60e51b8152602060048201526013602482015272135a5b9d1a5b99c81a5cc8191a5cd8589b1959606a1b60448201526064015b60405180910390fd5b6001600160a01b0382166105ad5760405162461bcd60e51b815260206004820152601b60248201527f43616e6e6f74206d696e7420746f207a65726f20616464726573730000000000604482015260640161054e565b600954816105ba60025490565b6105c4919061115e565b11156106075760405162461bcd60e51b815260206004820152601260248201527145786365656473206d617820737570706c7960701b604482015260640161054e565b6106118282610a82565b816001600160a01b03167f3f2c9d57c068687834f0de942a9babb9e5acab57d516d3480a3c16ee165a42738260405161064c91815260200190565b60405180910390a261065e6001600655565b5050565b61066a610a58565b600a54610100900460ff166106b75760405162461bcd60e51b8152602060048201526013602482015272109d5c9b9a5b99c81a5cc8191a5cd8589b1959606a1b604482015260640161054e565b3360009081526020819052604090205481111561070d5760405162461bcd60e51b8152602060048201526014602482015273496e73756666696369656e742062616c616e636560601b604482015260640161054e565b6107173382610ab8565b60405181815233907ffd38818f5291bf0bb3a2a48aadc06ba8757865d1dabd804585338aab3009dcb69060200160405180910390a26107566001600655565b50565b6107616108fd565b6104f86000610aee565b6107736108fd565b600a805460ff8082161560ff1990921682179092556040519116151581527f6bdfe227d5db299c59aa56d5f846f40dbd73b271aaa78e18ed74fc3e00b8aa6b906020016104ba565b6107c36108fd565b6104f8610b40565b6060600780546103bd90611124565b60003361044e8185856109a9565b6107f06108fd565b6001600160a01b0382166000818152600c6020908152604091829020805460ff191685151590811790915591519182527fa33e6b076d391e96626483b30e365719f79f1d6594aff6587649ffd6c82ed7fa91015b60405180910390a25050565b6108586108fd565b6001600160a01b03811661088257604051631e4fbdf760e01b81526000600482015260240161054e565b61075681610aee565b6108936108fd565b6001600160a01b0382166000818152600b6020908152604091829020805460ff191685151590811790915591519182527f7a02eb9b107b2ab713e88c3cd7ac538e5c21b689d0f1b1f22367578b28fc5d099101610844565b6108f88383836001610b83565b505050565b6005546001600160a01b031633146104f85760405163118cdaa760e01b815233600482015260240161054e565b6001600160a01b038381166000908152600160209081526040808320938616835292905220546000198110156109a3578181101561099457604051637dc7a0d960e11b81526001600160a01b0384166004820152602481018290526044810183905260640161054e565b6109a384848484036000610b83565b50505050565b6001600160a01b0383166109d357604051634b637e8f60e11b81526000600482015260240161054e565b6001600160a01b0382166109fd5760405163ec442f0560e01b81526000600482015260240161054e565b6108f8838383610c58565b610a10610e2a565b6005805460ff60a01b191690557f5db9ee0a495bf2e6ff9c91a7834c1ba4fdd244a5e8aa4e537bd38aeae4b073aa335b6040516001600160a01b0390911681526020016104ba565b600260065403610a7b57604051633ee5aeb560e01b815260040160405180910390fd5b6002600655565b6001600160a01b038216610aac5760405163ec442f0560e01b81526000600482015260240161054e565b61065e60008383610c58565b6001600160a01b038216610ae257604051634b637e8f60e11b81526000600482015260240161054e565b61065e82600083610c58565b600580546001600160a01b038381166001600160a01b0319831681179093556040519116919082907f8be0079c531659141344cd1fd0a4f28419497f9722a3daafe3b4186f6b6457e090600090a35050565b610b48610e54565b6005805460ff60a01b1916600160a01b1790557f62e78cea01bee320cd4e420270b5ea74000d11b0c9f74754ebdbfc544b05a258610a403390565b6001600160a01b038416610bad5760405163e602df0560e01b81526000600482015260240161054e565b6001600160a01b038316610bd757604051634a1406b160e11b81526000600482015260240161054e565b6001600160a01b03808516600090815260016020908152604080832093871683529290522082905580156109a357826001600160a01b0316846001600160a01b03167f8c5be1e5ebec7d5bd14f71427d1e84f3dd0314c0f7b2291e5b200ac8c7c3b92584604051610c4a91815260200190565b60405180910390a350505050565b6001600160a01b03831615801590610c7857506001600160a01b03821615155b15610e1f576001600160a01b0383166000908152600b602052604090205460ff16610ce55760405162461bcd60e51b815260206004820152601760248201527f53656e646572206e6f74204b5943207665726966696564000000000000000000604482015260640161054e565b6001600160a01b0382166000908152600b602052604090205460ff16610d4d5760405162461bcd60e51b815260206004820152601a60248201527f526563697069656e74206e6f74204b5943207665726966696564000000000000604482015260640161054e565b6001600160a01b0383166000908152600c602052604090205460ff1615610db65760405162461bcd60e51b815260206004820152601860248201527f53656e646572206163636f756e742069732066726f7a656e0000000000000000604482015260640161054e565b6001600160a01b0382166000908152600c602052604090205460ff1615610e1f5760405162461bcd60e51b815260206004820152601b60248201527f526563697069656e74206163636f756e742069732066726f7a656e0000000000604482015260640161054e565b6108f8838383610e7f565b600554600160a01b900460ff166104f857604051638dfc202b60e01b815260040160405180910390fd5b600554600160a01b900460ff16156104f85760405163d93c066560e01b815260040160405180910390fd5b6001600160a01b038316610eaa578060026000828254610e9f919061115e565b90915550610f1c9050565b6001600160a01b03831660009081526020819052604090205481811015610efd5760405163391434e360e21b81526001600160a01b0385166004820152602481018290526044810183905260640161054e565b6001600160a01b03841660009081526020819052604090209082900390555b6001600160a01b038216610f3857600280548290039055610f57565b6001600160a01b03821660009081526020819052604090208054820190555b816001600160a01b0316836001600160a01b03167fddf252ad1be2c89b69c2b068fc378daa952ba7f163c4a11628f55a4df523b3ef83604051610f9c91815260200190565b60405180910390a3505050565b60006020808352835180602085015260005b81811015610fd757858101830151858201604001528201610fbb565b506000604082860101526040601f19601f8301168501019250505092915050565b80356001600160a01b038116811461100f57600080fd5b919050565b6000806040838503121561102757600080fd5b61103083610ff8565b946020939093013593505050565b60008060006060848603121561105357600080fd5b61105c84610ff8565b925061106a60208501610ff8565b9150604084013590509250925092565b60006020828403121561108c57600080fd5b5035919050565b6000602082840312156110a557600080fd5b6110ae82610ff8565b9392505050565b600080604083850312156110c857600080fd5b6110d183610ff8565b9150602083013580151581146110e657600080fd5b809150509250929050565b6000806040838503121561110457600080fd5b61110d83610ff8565b915061111b60208401610ff8565b90509250929050565b600181811c9082168061113857607f821691505b60208210810361115857634e487b7160e01b600052602260045260246000fd5b50919050565b8082018082111561045457634e487b7160e01b600052601160045260246000fdfea2646970667358221220280a99dccee8b6b7f0d458c1ef87bebf49ead86c87fb2fbf2245f8f8bd478bae64736f6c63430008180033a2646970667358221220a3309eae9df3451604cd113df8b9083ebbb0395f430af61a0a9fc5b7b035ff6064736f6c63430008180033",
  "linkReferences": {},
  "deployedLinkReferences": {}
}