{
  "_format": "hh-sol-artifact-1",
  "contractName": "StableCoin",
  "sourceName": "contracts/StableCoin.sol",
  "abi": [
    {
      "inputs": [
        {
          "internalType": "string",
          "name": "name",
          "type": "string"
        },
        {
          "internalType": "string",
          "name": "symbol",
          "type": "string"
        },
        {
          "internalType": "uint8",
          "name": "decimals_",
          "type": "uint8"
        },
        {
          "internalType": "uint256",
          "name": "maxSupply_",
          "type": "uint256"
        },
        {
          "internalType": "address",
          "name": "initialOwner",
          "type": "address"
        }
      ],
      "stateMutability": "nonpayable",
      "type": "constructor"
    },
    {
      "inputs": [
        {
          "internalType": "address",
          "name": "spender",
          "type": "address"
        },
        {
          "internalType": "uint256",
          "name": "allowance",
          "type": "uint256"
        },
        {
          "internalType": "uint256",
          "name": "needed",
          "type": "uint256"
        }
      ],
      "name": "ERC20InsufficientAllowance",
      "type": "error"
    },
    {
      "inputs": [
        {
          "internalType": "address",
          "name": "sender",
          "type": "address"
        },
        {
          "internalType": "uint256",
          "name": "balance",
          "type": "uint256"
        },
        {
          "internalType": "uint256",
          "name": "needed",
          "type": "uint256"
        }
      ],
      "name": "ERC20InsufficientBalance",
      "type": "error"
    },
    {
      "inputs": [
        {
          "internalType": "address",
          "name": "approver",
          "type": "address"
        }
      ],
      "name": "ERC20InvalidApprover",
      "type": "error"
    },
    {
      "inputs": [
        {
          "internalType": "address",
          "name": "receiver",
          "type": "address"
        }
      ],
      "name": "ERC20InvalidReceiver",
      "type": "error"
    },
    {
      "inputs": [
        {
          "internalType": "address",
          "name": "sender",
          "type": "address"
        }
      ],
      "name": "ERC20InvalidSender",
      "type": "error"
    },
    {
      "inputs": [
        {
          "internalType": "address",
          "name": "spender",
          "type": "address"
        }
      ],
      "name": "ERC20InvalidSpender",
      "type": "error"
    },
    {
      "inputs": [],
      "name": "EnforcedPause",
      "type": "error"
    },
    {
      "inputs": [],
      "name": "ExpectedPause",
      "type": "error"
    },
    {
      "inputs": [
        {
          "internalType": "address",
          "name": "owner",
          "type": "address"
        }
      ],
      "name": "OwnableInvalidOwner",
      "type": "error"
    },
    {
      "inputs": [
        {
          "internalType": "address",
          "name": "account",
          "type": "address"
        }
      ],
      "name": "OwnableUnauthorizedAccount",
      "type": "error"
    },
    {
      "inputs": [],
      "name": "ReentrancyGuardReentrantCall",
      "type": "error"
    },
    {
      "anonymous": false,
      "inputs": [
        {
          "indexed": true,
          "internalType": "address",
          "name": "account",
          "type": "address"
        },
        {
          "indexed": false,
          "internalType": "bool",
          "name": "frozen",
          "type": "bool"
        }
      ],
      "name": "AccountFrozen",
      "type": "event"
    },
    {
      "anonymous": false,
      "inputs": [
        {
          "indexed": true,
          "internalType": "address",
          "name": "owner",
          "type": "address"
        },
        {
          "indexed": true,
          "internalType": "address",
          "name": "spender",
          "type": "address"
        },
        {
          "indexed": false,
          "internalType": "uint256",
          "name": "value",
          "type": "uint256"
        }
      ],
      "name": "Approval",
      "type": "event"
    },
    {
      "anonymous": false,
      "inputs": [
        {
          "indexed": false,
          "internalType": "bool",
          "name": "enabled",
          "type": "bool"
        }
      ],
      "name": "BurningToggled",
      "type": "event"
    },
    {
      "anonymous": false,
      "inputs": [
        {
          "indexed": true,
          "internalType": "address",
          "name": "account",
          "type": "address"
        },
        {
          "indexed": false,
          "internalType": "bool",
          "name": "verified",
          "type": "bool"
        }
      ],
      "name": "KYCVerified",
      "type": "event"
    },
    {
      "anonymous": false,
      "inputs": [
        {
          "indexed": false,
          "internalType": "bool",
          "name": "enabled",
          "type": "bool"
        }
      ],
      "name": "MintingToggled",
      "type": "event"
    },
    {
      "anonymous": false,
      "inputs": [
        {
          "indexed": true,
          "internalType": "address",
          "name": "previousOwner",
          "type": "address"
        },
        {
          "indexed": true,
          "internalType": "address",
          "name": "newOwner",
          "type": "address"
        }
      ],
      "name": "OwnershipTransferred",
      "type": "event"
    },
    {
      "anonymous": false,
      "inputs": [
        {
          "indexed": false,
          "internalType": "address",
          "name": "account",
          "type": "address"
        }
      ],
      "name": "Paused",
      "type": "event"
    },
    {
      "anonymous": false,
      "inputs": [
        {
          "indexed": true,
          "internalType": "address",
          "name": "from",
          "type": "address"
        },
        {
          "indexed": false,
          "internalType": "uint256",
          "name": "amount",
          "type": "uint256"
        }
      ],
      "name": "TokensBurned",
      "type": "event"
    },
    {
      "anonymous": false,
      "inputs": [
        {
          "indexed": true,
          "internalType": "address",
          "name": "to",
          "type": "address"
        },
        {
          "indexed": false,
          "internalType": "uint256",
          "name": "amount",
          "type": "uint256"
        }
      ],
      "name": "TokensMinted",
      "type": "event"
    },
    {
      "anonymous": false,
      "inputs": [
        {
          "indexed": true,
          "internalType": "address",
          "name": "from",
          "type": "address"
        },
        {
          "indexed": true,
          "internalType": "address",
          "name": "to",
          "type": "address"
        },
        {
          "indexed": false,
          "internalType": "uint256",
          "name": "value",
          "type": "uint256"
        }
      ],
      "name": "Transfer",
      "type": "event"
    },
    {
      "anonymous": false,
      "inputs": [
        {
          "indexed": false,
          "internalType": "address",
          "name": "account",
          "type": "address"
        }
      ],
      "name": "Unpaused",
      "type": "event"
    },
    {
      "inputs": [
        {
          "internalType": "address",
          "name": "owner",
          "type": "address"
        },
        {
          "internalType": "address",
          "name": "spender",
          "type": "address"
        }
      ],
      "name": "allowance",
      "outputs": [
        {
          "internalType": "uint256",
          "name": "",
          "type": "uint256"
        }
      ],
      "stateMutability": "view",
      "type": "function"
    },
    {
      "inputs": [
        {
          "internalType": "address",
          "name": "spender",
          "type": "address"
        },
        {
          "internalType": "uint256",
          "name": "value",
          "type": "uint256"
        }
      ],
      "name": "approve",
      "outputs": [
        {
          "internalType": "bool",
          "name": "",
          "type": "bool"
        }
      ],
      "stateMutability": "nonpayable",
      "type": "function"
    },
    {
      "inputs": [
        {
          "internalType": "address",
          "name": "account",
          "type": "address"
        }
      ],
      "name": "balanceOf",
      "outputs": [
        {
          "internalType": "uint256",
          "name": "",
          "type": "uint256"
        }
      ],
      "stateMutability": "view",
      "type": "function"
    },
    {
      "inputs": [
        {
          "internalType": "uint256",
          "name": "amount",
          "type": "uint256"
        }
      ],
      "name": "burn",
      "outputs": [],
      "stateMutability": "nonpayable",
      "type": "function"
    },
    {
      "inputs": [],
      "name": "burningEnabled",
      "outputs": [
        {
          "internalType": "bool",
          "name": "",
          "type": "bool"
        }
      ],
      "stateMutability": "view",
      "type": "function"
    },
    {
      "inputs": [],
      "name": "decimals",
      "outputs": [
        {
          "internalType": "uint8",
          "name": "",
          "type": "uint8"
        }
      ],
      "stateMutability": "view",
      "type": "function"
    },
    {
      "inputs": [
        {
          "internalType": "address",
          "name": "",
          "type": "address"
        }
      ],
      "name": "frozen",
      "outputs": [
        {
          "internalType": "bool",
          "name": "",
          "type": "bool"
        }
      ],
      "stateMutability": "view",
      "type": "function"
    },
    {
      "inputs": [
        {
          "internalType": "address",
          "name": "",
          "type": "address"
        }
      ],
      "name": "kycVerified",
      "outputs": [
        {
          "internalType": "bool",
          "name": "",
          "type": "bool"
        }
      ],
      "stateMutability": "view",
      "type": "function"
    },
    {
      "inputs": [],
      "name": "maxSupply",
      "outputs": [
        {
          "internalType": "uint256",
          "name": "",
          "type": "uint256"
        }
      ],
      "stateMutability": "view",
      "type": "function"
    },
    {
      "inputs": [
        {
          "internalType": "address",
          "name": "to",
          "type": "address"
        },
        {
          "internalType": "uint256",
          "name": "amount",
          "type": "uint256"
        }
      ],
      "name": "mint",
      "outputs": [],
      "stateMutability": "nonpayable",
      "type": "function"
    },
    {
      "inputs": [],
      "name": "mintingEnabled",
      "outputs": [
        {
          "internalType": "bool",
          "name": "",
          "type": "bool"
        }
      ],
      "stateMutability": "view",
      "type": "function"
    },
    {
      "inputs": [],
      "name": "name",
      "outputs": [
        {
          "internalType": "string",
          "name": "",
          "type": "string"
        }
      ],
      "stateMutability": "view",
      "type": "function"
    },
    {
      "inputs": [],
      "name": "owner",
      "outputs": [
        {
          "internalType": "address",
          "name": "",
          "type": "address"
        }
      ],
      "stateMutability": "view",
      "type": "function"
    },
    {
      "inputs": [],
      "name": "pause",
      "outputs": [],
      "stateMutability": "nonpayable",
      "type": "function"
    },
    {
      "inputs": [],
      "name": "paused",
      "outputs": [
        {
          "internalType": "bool",
          "name": "",
          "type": "bool"
        }
      ],
      "stateMutability": "view",
      "type": "function"
    },
    {
      "inputs": [],
      "name": "renounceOwnership",
      "outputs": [],
      "stateMutability": "nonpayable",
      "type": "function"
    },
    {
      "inputs": [
        {
          "internalType": "address",
          "name": "account",
          "type": "address"
        },
        {
          "internalType": "bool",
          "name": "frozen_",
          "type": "bool"
        }
      ],
      "name": "setFrozen",
      "outputs": [],
      "stateMutability": "nonpayable",
      "type": "function"
    },
    {
      "inputs": [
        {
          "internalType": "address",
          "name": "account",
          "type": "address"
        },
        {
          "internalType": "bool",
          "name": "verified",
          "type": "bool"
        }
      ],
      "name": "setKYCVerified",
      "outputs": [],
      "stateMutability": "nonpayable",
      "type": "function"
    },
    {
      "inputs": [],
      "name": "symbol",
      "outputs": [
        {
          "internalType": "string",
          "name": "",
          "type": "string"
        }
      ],
      "stateMutability": "view",
      "type": "function"
    },
    {
      "inputs": [],
      "name": "toggleBurning",
      "outputs": [],
      "stateMutability": "nonpayable",
      "type": "function"
    },
    {
      "inputs": [],
      "name": "toggleMinting",
      "outputs": [],
      "stateMutability": "nonpayable",
      "type": "function"
    },
    {
      "inputs": [],
      "name": "totalSupply",
      "outputs": [
        {
          "internalType": "uint256",
          "name": "",
          "type": "uint256"
        }
      ],
      "stateMutability": "view",
      "type": "function"
    },
    {
      "inputs": [
        {
          "internalType": "address",
          "name": "to",
          "type": "address"
        },
        {
          "internalType": "uint256",
          "name": "value",
          "type": "uint256"
        }
      ],
      "name": "transfer",
      "outputs": [
        {
          "internalType": "bool",
          "name": "",
          "type": "bool"
        }
      ],
      "stateMutability": "nonpayable",
      "type": "function"
    },
    {
      "inputs": [
        {
          "internalType": "address",
          "name": "from",
          "type": "address"
        },
        {
          "internalType": "address",
          "name": "to",
          "type": "address"
        },
        {
          "internalType": "uint256",
          "name": "value",
          "type": "uint256"
        }
      ],
      "name": "transferFrom",
      "outputs": [
        {
          "internalType": "bool",
          "name": "",
          "type": "bool"
        }
      ],
      "stateMutability": "nonpayable",
      "type": "function"
    },
    {
      "inputs": [
        {
          "internalType": "address",
          "name": "newOwner",
          "type": "address"
        }
      ],
      "name": "transferOwnership",
      "outputs": [],
      "stateMutability": "nonpayable",
      "type": "function"
    },
    {
      "inputs": [],
      "name": "unpause",
      "outputs": [],
      "stateMutability": "nonpayable",
      "type": "function"
    }
  ],
  "bytecode": "0x6080604052600a805461ffff19166101011790553480156200002057600080fd5b50604051620015c3380380620015c38339810160408190526200004391620001f1565b808585600362000054838262000332565b50600462000063828262000332565b5050506001600160a01b0381166200009557604051631e4fbdf760e01b81526000600482015260240160405180910390fd5b620000a081620000d7565b5060016006556007620000b4858262000332565b50506008805460ff191660ff939093169290921790915560095550620003fe9050565b600580546001600160a01b038381166001600160a01b0319831681179093556040519116919082907f8be0079c531659141344cd1fd0a4f28419497f9722a3daafe3b4186f6b6457e090600090a35050565b634e487b7160e01b600052604160045260246000fd5b600082601f8301126200015157600080fd5b81516001600160401b03808211156200016e576200016e62000129565b604051601f8301601f19908116603f0116810190828211818310171562000199576200019962000129565b8160405283815260209250866020858801011115620001b757600080fd5b600091505b83821015620001db5785820183015181830184015290820190620001bc565b6000602085830101528094505050505092915050565b600080600080600060a086880312156200020a57600080fd5b85516001600160401b03808211156200022257600080fd5b6200023089838a016200013f565b965060208801519150808211156200024757600080fd5b5062000256888289016200013f565b945050604086015160ff811681146200026e57600080fd5b6060870151608088015191945092506001600160a01b03811681146200029357600080fd5b809150509295509295909350565b600181811c90821680620002b657607f821691505b602082108103620002d757634e487b7160e01b600052602260045260246000fd5b50919050565b601f8211156200032d576000816000526020600020601f850160051c81016020861015620003085750805b601f850160051c820191505b81811015620003295782815560010162000314565b5050505b505050565b81516001600160401b038111156200034e576200034e62000129565b62000366816200035f8454620002a1565b84620002dd565b602080601f8311600181146200039e5760008415620003855750858301515b600019600386901b1c1916600185901b17855562000329565b600085815260208120601f198616915b82811015620003cf57888601518255948401946001909101908401620003ae565b5085821015620003ee5787850151600019600388901b60f8161c191681555b5050505050600190811b01905550565b6111b5806200040e6000396000f3fe608060405234801561001057600080fd5b506004361061018e5760003560e01c80637d55094d116100de578063a9059cbb11610097578063d5abeb0111610071578063d5abeb0114610347578063dd62ed3e1461034f578063f2fde38b14610388578063f40ed0d81461039b57600080fd5b8063a9059cbb146102fe578063ac869cd814610311578063d05166501461032457600080fd5b80637d55094d1461029b5780638456cb59146102a35780638da5cb5b146102ab57806395d89b41146102c65780639fd6db12146102ce578063a5410a66146102db57600080fd5b80633f4ba83a1161014b5780634d754715116101255780634d754715146102465780635c975abb1461025857806370a082311461026a578063715018a61461029357600080fd5b80633f4ba83a1461021857806340c10f191461022057806342966c681461023357600080fd5b806306fdde0314610193578063095ea7b3146101b157806318160ddd146101d457806322dcb0a7146101e657806323b872dd146101f0578063313ce56714610203575b600080fd5b61019b6103ae565b6040516101a89190610fa9565b60405180910390f35b6101c46101bf366004611014565b610440565b60405190151581526020016101a8565b6002545b6040519081526020016101a8565b6101ee61045a565b005b6101c46101fe36600461103e565b6104c4565b60085460405160ff90911681526020016101a8565b6101ee6104e8565b6101ee61022e366004611014565b6104fa565b6101ee61024136600461107a565b610662565b600a546101c490610100900460ff1681565b600554600160a01b900460ff166101c4565b6101d8610278366004611093565b6001600160a01b031660009081526020819052604090205490565b6101ee610759565b6101ee61076b565b6101ee6107bb565b6005546040516001600160a01b0390911681526020016101a8565b61019b6107cb565b600a546101c49060ff1681565b6101c46102e9366004611093565b600b6020526000908152604090205460ff1681565b6101c461030c366004611014565b6107da565b6101ee61031f3660046110b5565b6107e8565b6101c4610332366004611093565b600c6020526000908152604090205460ff1681565b6009546101d8565b6101d861035d3660046110f1565b6001600160a01b03918216600090815260016020908152604080832093909416825291909152205490565b6101ee610396366004611093565b610850565b6101ee6103a93660046110b5565b61088b565b6060600380546103bd90611124565b80601f01602080910402602001604051908101604052809291908181526020018280546103e990611124565b80156104365780601f1061040b57610100808354040283529160200191610436565b820191906000526020600020905b81548152906001019060200180831161041957829003601f168201915b5050505050905090565b60003361044e8185856108eb565b60019150505b92915050565b6104626108fd565b600a805460ff610100808304821615810261ff001990931692909217928390556040517f8f16f96db1455c60de696f074344b385e823f9368ac943b3684ba1a888962ca0936104ba9390049091161515815260200190565b60405180910390a1565b6000336104d285828561092a565b6104dd8585856109a9565b506001949350505050565b6104f06108fd565b6104f8610a08565b565b6105026108fd565b61050a610a58565b600a5460ff166105575760405162461bcd60e51b8152602060048201526013602482015272135a5b9d1a5b99c81a5cc8191a5cd8589b1959606a1b60448201526064015b60405180910390fd5b6001600160a01b0382166105ad5760405162461bcd60e51b815260206004820152601b60248201527f43616e6e6f74206d696e7420746f207a65726f20616464726573730000000000604482015260640161054e565b600954816105ba60025490565b6105c4919061115e565b11156106075760405162461bcd60e51b815260206004820152601260248201527145786365656473206d617820737570706c7960701b604482015260640161054e565b6106118282610a82565b816001600160a01b03167f3f2c9d57c068687834f0de942a9babb9e5acab57d516d3480a3c16ee165a42738260405161064c91815260200190565b60405180910390a261065e6001600655565b5050565b61066a610a58565b600a54610100900460ff166106b75760405162461bcd60e51b8152602060048201526013602482015272109d5c9b9a5b99c81a5cc8191a5cd8589b1959606a1b604482015260640161054e565b3360009081526020819052604090205481111561070d5760405162461bcd60e51b8152602060048201526014602482015273496e73756666696369656e742062616c616e636560601b604482015260640161054e565b6107173382610ab8565b60405181815233907ffd38818f5291bf0bb3a2a48aadc06ba8757865d1dabd804585338aab3009dcb69060200160405180910390a26107566001600655565b50565b6107616108fd565b6104f86000610aee565b6107736108fd565b600a805460ff8082161560ff1990921682179092556040519116151581527f6bdfe227d5db299c59aa56d5f846f40dbd73b271aaa78e18ed74fc3e00b8aa6b906020016104ba565b6107c36108fd565b6104f8610b40565b6060600780546103bd90611124565b60003361044e8185856109a9565b6107f06108fd565b6001600160a01b0382166000818152600c6020908152604091829020805460ff191685151590811790915591519182527fa33e6b076d391e96626483b30e365719f79f1d6594aff6587649ffd6c82ed7fa91015b60405180910390a25050565b6108586108fd565b6001600160a01b03811661088257604051631e4fbdf760e01b81526000600482015260240161054e565b61075681610aee565b6108936108fd565b6001600160a01b0382166000818152600b6020908152604091829020805460ff191685151590811790915591519182527f7a02eb9b107b2ab713e88c3cd7ac538e5c21b689d0f1b1f22367578b28fc5d099101610844565b6108f88383836001610b83565b505050565b6005546001600160a01b031633146104f85760405163118cdaa760e01b815233600482015260240161054e565b6001600160a01b038381166000908152600160209081526040808320938616835292905220546000198110156109a3578181101561099457604051637dc7a0d960e11b81526001600160a01b0384166004820152602481018290526044810183905260640161054e565b6109a384848484036000610b83565b50505050565b6001600160a01b0383166109d357604051634b637e8f60e11b81526000600482015260240161054e565b6001600160a01b0382166109fd5760405163ec442f0560e01b81526000600482015260240161054e565b6108f8838383610c58565b610a10610e2a565b6005805460ff60a01b191690557f5db9ee0a495bf2e6ff9c91a7834c1ba4fdd244a5e8aa4e537bd38aeae4b073aa335b6040516001600160a01b0390911681526020016104ba565b600260065403610a7b57604051633ee5aeb560e01b815260040160405180910390fd5b6002600655565b6001600160a01b038216610aac5760405163ec442f0560e01b81526000600482015260240161054e565b61065e60008383610c58565b6001600160a01b038216610ae257604051634b637e8f60e11b81526000600482015260240161054e565b61065e82600083610c58565b600580546001600160a01b038381166001600160a01b0319831681179093556040519116919082907f8be0079c531659141344cd1fd0a4f28419497f9722a3daafe3b4186f6b6457e090600090a35050565b610b48610e54565b6005805460ff60a01b1916600160a01b1790557f62e78cea01bee320cd4e420270b5ea74000d11b0c9f74754ebdbfc544b05a258610a403390565b6001600160a01b038416610bad5760405163e602df0560e01b81526000600482015260240161054e565b6001600160a01b038316610bd757604051634a1406b160e11b81526000600482015260240161054e565b6001600160a01b03808516600090815260016020908152604080832093871683529290522082905580156109a357826001600160a01b0316846001600160a01b03167f8c5be1e5ebec7d5bd14f71427d1e84f3dd0314c0f7b2291e5b200ac8c7c3b92584604051610c4a91815260200190565b60405180910390a350505050565b6001600160a01b03831615801590610c7857506001600160a01b03821615155b15610e1f576001600160a01b0383166000908152600b602052604090205460ff16610ce55760405162461bcd60e51b815260206004820152601760248201527f53656e646572206e6f74204b5943207665726966696564000000000000000000604482015260640161054e565b6001600160a01b0382166000908152600b602052604090205460ff16610d4d5760405162461bcd60e51b815260206004820152601a60248201527f526563697069656e74206e6f74204b5943207665726966696564000000000000604482015260640161054e565b6001600160a01b0383166000908152600c602052604090205460ff1615610db65760405162461bcd60e51b815260206004820152601860248201527f53656e646572206163636f756e742069732066726f7a656e0000000000000000604482015260640161054e565b6001600160a01b0382166000908152600c602052604090205460ff1615610e1f5760405162461bcd60e51b815260206004820152601b60248201527f526563697069656e74206163636f756e742069732066726f7a656e0000000000604482015260640161054e565b6108f8838383610e7f565b600554600160a01b900460ff166104f857604051638dfc202b60e01b815260040160405180910390fd5b600554600160a01b900460ff16156104f85760405163d93c066560e01b815260040160405180910390fd5b6001600160a01b038316610eaa578060026000828254610e9f919061115e565b90915550610f1c9050565b6001600160a01b03831660009081526020819052604090205481811015610efd5760405163391434e360e21b81526001600160a01b0385166004820152602481018290526044810183905260640161054e565b6001600160a01b03841660009081526020819052604090209082900390555b6001600160a01b038216610f3857600280548290039055610f57565b6001600160a01b03821660009081526020819052604090208054820190555b816001600160a01b0316836001600160a01b03167fddf252ad1be2c89b69c2b068fc378daa952ba7f163c4a11628f55a4df523b3ef83604051610f9c91815260200190565b60405180910390a3505050565b60006020808352835180602085015260005b81811015610fd757858101830151858201604001528201610fbb565b506000604082860101526040601f19601f8301168501019250505092915050565b80356001600160a01b038116811461100f57600080fd5b919050565b6000806040838503121561102757600080fd5b61103083610ff8565b946020939093013593505050565b60008060006060848603121561105357600080fd5b61105c84610ff8565b925061106a60208501610ff8565b9150604084013590509250925092565b60006020828403121561108c57600080fd5b5035919050565b6000602082840312156110a557600080fd5b6110ae82610ff8565b9392505050565b600080604083850312156110c857600080fd5b6110d183610ff8565b9150602083013580151581146110e657600080fd5b809150509250929050565b6000806040838503121561110457600080fd5b61110d83610ff8565b915061111b60208401610ff8565b90509250929050565b600181811c9082168061113857607f821691505b60208210810361115857634e487b7160e01b600052602260045260246000fd5b50919050565b8082018082111561045457634e487b7160e01b600052601160045260246000fdfea2646970667358221220280a99dccee8b6b7f0d458c1ef87bebf49ead86c87fb2fbf2245f8f8bd478bae64736f6c63430008180033",
  "linkReferences": {},
  "deployedLinkReferences": {}
}