{"contracts/TrustService.sol":{"TrustService":{"abi":[{"inputs":[{"internalType":"address","name":"initialOwner","type":"address"}],"stateMutability":"nonpayable","type":"constructor"},{"inputs":[{"internalType":"address","name":"owner","type":"address"}],"name":"OwnableInvalidOwner","type":"error"},{"inputs":[{"internalType":"address","name":"account","type":"address"}],"name":"OwnableUnauthorizedAccount","type":"error"},{"inputs":[],"name":"ReentrancyGuardReentrantCall","type":"error"},{"anonymous":false,"inputs":[{"indexed":true,"internalType":"address","name":"previousOwner","type":"address"},{"indexed":true,"internalType":"address","name":"newOwner","type":"address"}],"name":"OwnershipTransferred","type":"event"},{"anonymous":false,"inputs":[{"indexed":true,"internalType":"address","name":"addr","type":"address"},{"indexed":false,"internalType":"uint256","name":"oldRole","type":"uint256"},{"indexed":false,"internalType":"uint256","name":"newRole","type":"uint256"}],"name":"RoleChanged","type":"event"},{"inputs":[{"internalType":"address","name":"addr","type":"address"},{"internalType":"uint256","name":"minRole","type":"uint256"}],"name":"hasMinimumRole","outputs":[{"internalType":"bool","name":"","type":"bool"}],"stateMutability":"view","type":"function"},{"inputs":[{"internalType":"address","name":"addr","type":"address"},{"internalType":"uint256","name":"role","type":"uint256"}],"name":"hasRole","outputs":[{"internalType":"bool","name":"","type":"bool"}],"stateMutability":"view","type":"function"},{"inputs":[{"internalType":"address","name":"addr","type":"address"}],"name":"isRoleManager","outputs":[{"internalType":"bool","name":"","type":"bool"}],"stateMutability":"view","type":"function"},{"inputs":[],"name":"owner","outputs":[{"internalType":"address","name":"","type":"address"}],"stateMutability":"view","type":"function"},{"inputs":[],"name":"renounceOwnership","outputs":[],"stateMutability":"nonpayable","type":"function"},{"inputs":[{"internalType":"uint256","name":"role","type":"uint256"},{"internalType":"uint256","name":"index","type":"uint256"}],"name":"roleMemberAt","outputs":[{"internalType":"address","name":"","type":"address"}],"stateMutability":"view","type":"function"},{"inputs":[{"internalType":"uint256","name":"role","type":"uint256"}],"name":"roleMemberCount","outputs":[{"internalType":"uint256","name":"","type":"uint256"}],"stateMutability":"view","type":"function"},{"inputs":[{"internalType":"address","name":"addr","type":"address"}],"name":"roleOf","outputs":[{"internalType":"uint256","name":"","type":"uint256"}],"stateMutability":"view","type":"function"},{"inputs":[{"internalType":"address","name":"addr","type":"address"},{"internalType":"uint256","name":"role","type":"uint256"}],"name":"setRole","outputs":[],"stateMutability":"nonpayable","type":"function"},{"inputs":[{"internalType":"address","name":"manager","type":"address"},{"internalType":"bool","name":"enabled","type":"bool"}],"name":"setRoleManager","outputs":[],"stateMutability":"nonpayable","type":"function"},{"inputs":[{"internalType":"address","name":"newOwner","type":"address"}],"name":"transferOwnership","outputs":[],"stateMutability":"nonpayable","type":"function"}],"evm":{"bytecode":{"linkReferences":{},"object":"60806040523480156200001157600080fd5b5060405162000da338038062000da383398101604081905262000034916200036f565b806001600160a01b0381166200006457604051631e4fbdf760e01b81526000600482015260240160405180910390fd5b6200006f81620000aa565b50600180805562000082908290620000fa565b6001600160a01b03166000908152600560205260409020805460ff19166001179055620003f5565b600080546001600160a01b038381166001600160a01b0319831681178455604051919092169283917f8be0079c531659141344cd1fd0a4f28419497f9722a3daafe3b4186f6b6457e09190a35050565b6001600160a01b0382166000908152600260205260409020548015620001265762000126838262000159565b6001600160a01b038316600090815260026020526040902082905581156200015457620001548383620002e8565b505050565b60008181526004602090815260408083206001600160a01b038616845290915290205460ff1615620002e45760008181526004602090815260408083206001600160a01b03861684528252808320805460ff1916905583835260039091528120905b8154811015620002e157836001600160a01b0316828281548110620001e457620001e4620003a1565b6000918252602090912001546001600160a01b031603620002d85781546200020f90600190620003b7565b81146200029d57815482906200022890600190620003b7565b815481106200023b576200023b620003a1565b9060005260206000200160009054906101000a90046001600160a01b03168282815481106200026e576200026e620003a1565b9060005260206000200160006101000a8154816001600160a01b0302191690836001600160a01b031602179055505b81805480620002b057620002b0620003df565b600082815260209020810160001990810180546001600160a01b0319169055019055620002e1565b600101620001bb565b50505b5050565b60008181526004602090815260408083206001600160a01b038616845290915290205460ff16620002e45760008181526004602090815260408083206001600160a01b0395909516808452948252808320805460ff1916600190811790915593835260038252822080549384018155825290200180546001600160a01b0319169091179055565b6000602082840312156200038257600080fd5b81516001600160a01b03811681146200039a57600080fd5b9392505050565b634e487b7160e01b600052603260045260246000fd5b81810381811115620003d957634e487b7160e01b600052601160045260246000fd5b92915050565b634e487b7160e01b600052603160045260246000fd5b61099e80620004056000396000f3fe608060405234801561001057600080fd5b50600436106100a95760003560e01c8063715018a611610071578063715018a61461018857806374277a63146101925780638da5cb5b146101a5578063a1ca3586146101b6578063a5d7827e146101c9578063f2fde38b146101f257600080fd5b80630bc13f08146100ae5780631c787568146100e15780632d524393146101045780635c97f4a2146101305780636011dce01461015d575b600080fd5b6100ce6100bc36600461083c565b60009081526003602052604090205490565b6040519081526020015b60405180910390f35b6100f46100ef366004610871565b610205565b60405190151581526020016100d8565b6100f461011236600461089b565b6001600160a01b031660009081526005602052604090205460ff1690565b6100f461013e366004610871565b6001600160a01b03919091166000908152600260205260409020541490565b61017061016b3660046108bd565b61028a565b6040516001600160a01b0390911681526020016100d8565b61019061031e565b005b6101906101a0366004610871565b610332565b6000546001600160a01b0316610170565b6101906101c43660046108df565b610479565b6100ce6101d736600461089b565b6001600160a01b031660009081526002602052604090205490565b61019061020036600461089b565b610500565b6001600160a01b0382166000908152600260205260408120546000198101610231576001915050610284565b60018303610243576001149050610284565b6002830361026257600181148061025a5750600281145b915050610284565b6004830361027e57600181148061025a57506004149050610284565b60009150505b92915050565b60008281526003602052604081205482106102e25760405162461bcd60e51b8152602060048201526013602482015272496e646578206f7574206f6620626f756e647360681b60448201526064015b60405180910390fd5b60008381526003602052604090208054839081106103025761030261091b565b6000918252602090912001546001600160a01b03169392505050565b61032661053e565b610330600061056b565b565b61033a6105bb565b6000546001600160a01b031633148061036257503360009081526005602052604090205460ff165b6103ae5760405162461bcd60e51b815260206004820152601b60248201527f4e6f7420617574686f72697a656420746f2073657420726f6c6573000000000060448201526064016102d9565b6001600160a01b0382166104045760405162461bcd60e51b815260206004820152601860248201527f5a65726f2061646472657373206e6f7420616c6c6f776564000000000000000060448201526064016102d9565b6001600160a01b03821660009081526002602052604090205461042783836105e5565b60408051828152602081018490526001600160a01b038516917fda65eff493aacbaacd2348758c3c840dc21890ae310bf3500e2688198c0bd2b1910160405180910390a25061047560018055565b5050565b61048161053e565b6001600160a01b0382166000818152600560205260409020805460ff19168315151790557fda65eff493aacbaacd2348758c3c840dc21890ae310bf3500e2688198c0bd2b1826104d25760016104d5565b60005b836104e15760006104e4565b60015b6040805192835260208301919091520160405180910390a25050565b61050861053e565b6001600160a01b03811661053257604051631e4fbdf760e01b8152600060048201526024016102d9565b61053b8161056b565b50565b6000546001600160a01b031633146103305760405163118cdaa760e01b81523360048201526024016102d9565b600080546001600160a01b038381166001600160a01b0319831681178455604051919092169283917f8be0079c531659141344cd1fd0a4f28419497f9722a3daafe3b4186f6b6457e09190a35050565b6002600154036105de57604051633ee5aeb560e01b815260040160405180910390fd5b6002600155565b6001600160a01b038216600090815260026020526040902054801561060e5761060e838261063e565b6001600160a01b038316600090815260026020526040902082905581156106395761063983836107b6565b505050565b60008181526004602090815260408083206001600160a01b038616845290915290205460ff16156104755760008181526004602090815260408083206001600160a01b03861684528252808320805460ff1916905583835260039091528120905b81548110156107b057836001600160a01b03168282815481106106c4576106c461091b565b6000918252602090912001546001600160a01b0316036107a85781546106ec90600190610931565b8114610771578154829061070290600190610931565b815481106107125761071261091b565b9060005260206000200160009054906101000a90046001600160a01b03168282815481106107425761074261091b565b9060005260206000200160006101000a8154816001600160a01b0302191690836001600160a01b031602179055505b8180548061078157610781610952565b600082815260209020810160001990810180546001600160a01b03191690550190556107b0565b60010161069f565b50505050565b60008181526004602090815260408083206001600160a01b038616845290915290205460ff166104755760008181526004602090815260408083206001600160a01b0395909516808452948252808320805460ff1916600190811790915593835260038252822080549384018155825290200180546001600160a01b0319169091179055565b60006020828403121561084e57600080fd5b5035919050565b80356001600160a01b038116811461086c57600080fd5b919050565b6000806040838503121561088457600080fd5b61088d83610855565b946020939093013593505050565b6000602082840312156108ad57600080fd5b6108b682610855565b9392505050565b600080604083850312156108d057600080fd5b50508035926020909101359150565b600080604083850312156108f257600080fd5b6108fb83610855565b91506020830135801515811461091057600080fd5b809150509250929050565b634e487b7160e01b600052603260045260246000fd5b8181038181111561028457634e487b7160e01b600052601160045260246000fd5b634e487b7160e01b600052603160045260246000fdfea2646970667358221220f46d4e7f8b4a76d361c7d962f3e79e8a378c5bcd01c89d120c69be85ab5a7f9564736f6c63430008180033","opcodes":"PUSH1 0x80 PUSH1 0x40 MSTORE CALLVALUE DUP1 ISZERO PUSH3 0x11 JUMPI PUSH1 0x0 DUP1 REVERT JUMPDEST POP PUSH1 0x40 MLOAD PUSH3 0xDA3 CODESIZE SUB DUP1 PUSH3 0xDA3 DUP4 CODECOPY DUP2 ADD PUSH1 0x40 DUP2 SWAP1 MSTORE PUSH3 0x34 SWAP2 PUSH3 0x36F JUMP JUMPDEST DUP1 PUSH1 0x1 PUSH1 0x1 PUSH1 0xA0 SHL SUB DUP2 AND PUSH3 0x64 JUMPI PUSH1 0x40 MLOAD PUSH4 0x1E4FBDF7 PUSH1 0xE0 SHL DUP2 MSTORE PUSH1 0x0 PUSH1 0x4 DUP3 ADD MSTORE PUSH1 0x24 ADD PUSH1 0x40 MLOAD DUP1 SWAP2 SUB SWAP1 REVERT JUMPDEST PUSH3 0x6F DUP2 PUSH3 0xAA JUMP JUMPDEST POP PUSH1 0x1 DUP1 DUP1 SSTORE PUSH3 0x82 SWAP1 DUP3 SWAP1 PUSH3 0xFA JUMP JUMPDEST PUSH1 0x1 PUSH1 0x1 PUSH1 0xA0 SHL SUB AND PUSH1 0x0 SWAP1 DUP2 MSTORE PUSH1 0x5 PUSH1 0x20 MSTORE PUSH1 0x40 SWAP1 KECCAK256 DUP1 SLOAD PUSH1 0xFF NOT AND PUSH1 0x1 OR SWAP1 SSTORE PUSH3 0x3F5 JUMP JUMPDEST PUSH1 0x0 DUP1 SLOAD PUSH1 0x1 PUSH1 0x1 PUSH1 0xA0 SHL SUB DUP4 DUP2 AND PUSH1 0x1 PUSH1 0x1 PUSH1 0xA0 SHL SUB NOT DUP4 AND DUP2 OR DUP5 SSTORE PUSH1 0x40 MLOAD SWAP2 SWAP1 SWAP3 AND SWAP3 DUP4 SWAP2 PUSH32 0x8BE0079C531659141344CD1FD0A4F28419497F9722A3DAAFE3B4186F6B6457E0 SWAP2 SWAP1 LOG3 POP POP JUMP JUMPDEST PUSH1 0x1 PUSH1 0x1 PUSH1 0xA0 SHL SUB DUP3 AND PUSH1 0x0 SWAP1 DUP2 MSTORE PUSH1 0x2 PUSH1 0x20 MSTORE PUSH1 0x40 SWAP1 KECCAK256 SLOAD DUP1 ISZERO PUSH3 0x126 JUMPI PUSH3 0x126 DUP4 DUP3 PUSH3 0x159 JUMP JUMPDEST PUSH1 0x1 PUSH1 0x1 PUSH1 0xA0 SHL SUB DUP4 AND PUSH1 0x0 SWAP1 DUP2 MSTORE PUSH1 0x2 PUSH1 0x20 MSTORE PUSH1 0x40 SWAP1 KECCAK256 DUP3 SWAP1 SSTORE DUP2 ISZERO PUSH3 0x154 JUMPI PUSH3 0x154 DUP4 DUP4 PUSH3 0x2E8 JUMP JUMPDEST POP POP POP JUMP JUMPDEST PUSH1 0x0 DUP2 DUP2 MSTORE PUSH1 0x4 PUSH1 0x20 SWAP1 DUP2 MSTORE PUSH1 0x40 DUP1 DUP4 KECCAK256 PUSH1 0x1 PUSH1 0x1 PUSH1 0xA0 SHL SUB DUP7 AND DUP5 MSTORE SWAP1 SWAP2 MSTORE SWAP1 KECCAK256 SLOAD PUSH1 0xFF AND ISZERO PUSH3 0x2E4 JUMPI PUSH1 0x0 DUP2 DUP2 MSTORE PUSH1 0x4 PUSH1 0x20 SWAP1 DUP2 MSTORE PUSH1 0x40 DUP1 DUP4 KECCAK256 PUSH1 0x1 PUSH1 0x1 PUSH1 0xA0 SHL SUB DUP7 AND DUP5 MSTORE DUP3 MSTORE DUP1 DUP4 KECCAK256 DUP1 SLOAD PUSH1 0xFF NOT AND SWAP1 SSTORE DUP4 DUP4 MSTORE PUSH1 0x3 SWAP1 SWAP2 MSTORE DUP2 KECCAK256 SWAP1 JUMPDEST DUP2 SLOAD DUP2 LT ISZERO PUSH3 0x2E1 JUMPI DUP4 PUSH1 0x1 PUSH1 0x1 PUSH1 0xA0 SHL SUB AND DUP3 DUP3 DUP2 SLOAD DUP2 LT PUSH3 0x1E4 JUMPI PUSH3 0x1E4 PUSH3 0x3A1 JUMP JUMPDEST PUSH1 0x0 SWAP2 DUP3 MSTORE PUSH1 0x20 SWAP1 SWAP2 KECCAK256 ADD SLOAD PUSH1 0x1 PUSH1 0x1 PUSH1 0xA0 SHL SUB AND SUB PUSH3 0x2D8 JUMPI DUP2 SLOAD PUSH3 0x20F SWAP1 PUSH1 0x1 SWAP1 PUSH3 0x3B7 JUMP JUMPDEST DUP2 EQ PUSH3 0x29D JUMPI DUP2 SLOAD DUP3 SWAP1 PUSH3 0x228 SWAP1 PUSH1 0x1 SWAP1 PUSH3 0x3B7 JUMP JUMPDEST DUP2 SLOAD DUP2 LT PUSH3 0x23B JUMPI PUSH3 0x23B PUSH3 0x3A1 JUMP JUMPDEST SWAP1 PUSH1 0x0 MSTORE PUSH1 0x20 PUSH1 0x0 KECCAK256 ADD PUSH1 0x0 SWAP1 SLOAD SWAP1 PUSH2 0x100 EXP SWAP1 DIV PUSH1 0x1 PUSH1 0x1 PUSH1 0xA0 SHL SUB AND DUP3 DUP3 DUP2 SLOAD DUP2 LT PUSH3 0x26E JUMPI PUSH3 0x26E PUSH3 0x3A1 JUMP JUMPDEST SWAP1 PUSH1 0x0 MSTORE PUSH1 0x20 PUSH1 0x0 KECCAK256 ADD PUSH1 0x0 PUSH2 0x100 EXP DUP2 SLOAD DUP2 PUSH1 0x1 PUSH1 0x1 PUSH1 0xA0 SHL SUB MUL NOT AND SWAP1 DUP4 PUSH1 0x1 PUSH1 0x1 PUSH1 0xA0 SHL SUB AND MUL OR SWAP1 SSTORE POP JUMPDEST DUP2 DUP1 SLOAD DUP1 PUSH3 0x2B0 JUMPI PUSH3 0x2B0 PUSH3 0x3DF JUMP JUMPDEST PUSH1 0x0 DUP3 DUP2 MSTORE PUSH1 0x20 SWAP1 KECCAK256 DUP2 ADD PUSH1 0x0 NOT SWAP1 DUP2 ADD DUP1 SLOAD PUSH1 0x1 PUSH1 0x1 PUSH1 0xA0 SHL SUB NOT AND SWAP1 SSTORE ADD SWAP1 SSTORE PUSH3 0x2E1 JUMP JUMPDEST PUSH1 0x1 ADD PUSH3 0x1BB JUMP JUMPDEST POP POP JUMPDEST POP POP JUMP JUMPDEST PUSH1 0x0 DUP2 DUP2 MSTORE PUSH1 0x4 PUSH1 0x20 SWAP1 DUP2 MSTORE PUSH1 0x40 DUP1 DUP4 KECCAK256 PUSH1 0x1 PUSH1 0x1 PUSH1 0xA0 SHL SUB DUP7 AND DUP5 MSTORE SWAP1 SWAP2 MSTORE SWAP1 KECCAK256 SLOAD PUSH1 0xFF AND PUSH3 0x2E4 JUMPI PUSH1 0x0 DUP2 DUP2 MSTORE PUSH1 0x4 PUSH1 0x20 SWAP1 DUP2 MSTORE PUSH1 0x40 DUP1 DUP4 KECCAK256 PUSH1 0x1 PUSH1 0x1 PUSH1 0xA0 SHL SUB SWAP6 SWAP1 SWAP6 AND DUP1 DUP5 MSTORE SWAP5 DUP3 MSTORE DUP1 DUP4 KECCAK256 DUP1 SLOAD PUSH1 0xFF NOT AND PUSH1 0x1 SWAP1 DUP2 OR SWAP1 SWAP2 SSTORE SWAP4 DUP4 MSTORE PUSH1 0x3 DUP3 MSTORE DUP3 KECCAK256 DUP1 SLOAD SWAP4 DUP5 ADD DUP2 SSTORE DUP3 MSTORE SWAP1 KECCAK256 ADD DUP1 SLOAD PUSH1 0x1 PUSH1 0x1 PUSH1 0xA0 SHL SUB NOT AND SWAP1 SWAP2 OR SWAP1 SSTORE JUMP JUMPDEST PUSH1 0x0 PUSH1 0x20 DUP3 DUP5 SUB SLT ISZERO PUSH3 0x382 JUMPI PUSH1 0x0 DUP1 REVERT JUMPDEST DUP2 MLOAD PUSH1 0x1 PUSH1 0x1 PUSH1 0xA0 SHL SUB DUP2 AND DUP2 EQ PUSH3 0x39A JUMPI PUSH1 0x0 DUP1 REVERT JUMPDEST SWAP4 SWAP3 POP POP POP JUMP JUMPDEST PUSH4 0x4E487B71 PUSH1 0xE0 SHL PUSH1 0x0 MSTORE PUSH1 0x32 PUSH1 0x4 MSTORE PUSH1 0x24 PUSH1 0x0 REVERT JUMPDEST DUP2 DUP2 SUB DUP2 DUP2 GT ISZERO PUSH3 0x3D9 JUMPI PUSH4 0x4E487B71 PUSH1 0xE0 SHL PUSH1 0x0 MSTORE PUSH1 0x11 PUSH1 0x4 MSTORE PUSH1 0x24 PUSH1 0x0 REVERT JUMPDEST SWAP3 SWAP2 POP POP JUMP JUMPDEST PUSH4 0x4E487B71 PUSH1 0xE0 SHL PUSH1 0x0 MSTORE PUSH1 0x31 PUSH1 0x4 MSTORE PUSH1 0x24 PUSH1 0x0 REVERT JUMPDEST PUSH2 0x99E DUP1 PUSH3 0x405 PUSH1 0x0 CODECOPY PUSH1 0x0 RETURN INVALID PUSH1 0x80 PUSH1 0x40 MSTORE CALLVALUE DUP1 ISZERO PUSH2 0x10 JUMPI PUSH1 0x0 DUP1 REVERT JUMPDEST POP PUSH1 0x4 CALLDATASIZE LT PUSH2 0xA9 JUMPI PUSH1 0x0 CALLDATALOAD PUSH1 0xE0 SHR DUP1 PUSH4 0x715018A6 GT PUSH2 0x71 JUMPI DUP1 PUSH4 0x715018A6 EQ PUSH2 0x188 JUMPI DUP1 PUSH4 0x74277A63 EQ PUSH2 0x192 JUMPI DUP1 PUSH4 0x8DA5CB5B EQ PUSH2 0x1A5 JUMPI DUP1 PUSH4 0xA1CA3586 EQ PUSH2 0x1B6 JUMPI DUP1 PUSH4 0xA5D7827E EQ PUSH2 0x1C9 JUMPI DUP1 PUSH4 0xF2FDE38B EQ PUSH2 0x1F2 JUMPI PUSH1 0x0 DUP1 REVERT JUMPDEST DUP1 PUSH4 0xBC13F08 EQ PUSH2 0xAE JUMPI DUP1 PUSH4 0x1C787568 EQ PUSH2 0xE1 JUMPI DUP1 PUSH4 0x2D524393 EQ PUSH2 0x104 JUMPI DUP1 PUSH4 0x5C97F4A2 EQ PUSH2 0x130 JUMPI DUP1 PUSH4 0x6011DCE0 EQ PUSH2 0x15D JUMPI JUMPDEST PUSH1 0x0 DUP1 REVERT JUMPDEST PUSH2 0xCE PUSH2 0xBC CALLDATASIZE PUSH1 0x4 PUSH2 0x83C JUMP JUMPDEST PUSH1 0x0 SWAP1 DUP2 MSTORE PUSH1 0x3 PUSH1 0x20 MSTORE PUSH1 0x40 SWAP1 KECCAK256 SLOAD SWAP1 JUMP JUMPDEST PUSH1 0x40 MLOAD SWAP1 DUP2 MSTORE PUSH1 0x20 ADD JUMPDEST PUSH1 0x40 MLOAD DUP1 SWAP2 SUB SWAP1 RETURN JUMPDEST PUSH2 0xF4 PUSH2 0xEF CALLDATASIZE PUSH1 0x4 PUSH2 0x871 JUMP JUMPDEST PUSH2 0x205 JUMP JUMPDEST PUSH1 0x40 MLOAD SWAP1 ISZERO ISZERO DUP2 MSTORE PUSH1 0x20 ADD PUSH2 0xD8 JUMP JUMPDEST PUSH2 0xF4 PUSH2 0x112 CALLDATASIZE PUSH1 0x4 PUSH2 0x89B JUMP JUMPDEST PUSH1 0x1 PUSH1 0x1 PUSH1 0xA0 SHL SUB AND PUSH1 0x0 SWAP1 DUP2 MSTORE PUSH1 0x5 PUSH1 0x20 MSTORE PUSH1 0x40 SWAP1 KECCAK256 SLOAD PUSH1 0xFF AND SWAP1 JUMP JUMPDEST PUSH2 0xF4 PUSH2 0x13E CALLDATASIZE PUSH1 0x4 PUSH2 0x871 JUMP JUMPDEST PUSH1 0x1 PUSH1 0x1 PUSH1 0xA0 SHL SUB SWAP2 SWAP1 SWAP2 AND PUSH1 0x0 SWAP1 DUP2 MSTORE PUSH1 0x2 PUSH1 0x20 MSTORE PUSH1 0x40 SWAP1 KECCAK256 SLOAD EQ SWAP1 JUMP JUMPDEST PUSH2 0x170 PUSH2 0x16B CALLDATASIZE PUSH1 0x4 PUSH2 0x8BD JUMP JUMPDEST PUSH2 0x28A JUMP JUMPDEST PUSH1 0x40 MLOAD PUSH1 0x1 PUSH1 0x1 PUSH1 0xA0 SHL SUB SWAP1 SWAP2 AND DUP2 MSTORE PUSH1 0x20 ADD PUSH2 0xD8 JUMP JUMPDEST PUSH2 0x190 PUSH2 0x31E JUMP JUMPDEST STOP JUMPDEST PUSH2 0x190 PUSH2 0x1A0 CALLDATASIZE PUSH1 0x4 PUSH2 0x871 JUMP JUMPDEST PUSH2 0x332 JUMP JUMPDEST PUSH1 0x0 SLOAD PUSH1 0x1 PUSH1 0x1 PUSH1 0xA0 SHL SUB AND PUSH2 0x170 JUMP JUMPDEST PUSH2 0x190 PUSH2 0x1C4 CALLDATASIZE PUSH1 0x4 PUSH2 0x8DF JUMP JUMPDEST PUSH2 0x479 JUMP JUMPDEST PUSH2 0xCE PUSH2 0x1D7 CALLDATASIZE PUSH1 0x4 PUSH2 0x89B JUMP JUMPDEST PUSH1 0x1 PUSH1 0x1 PUSH1 0xA0 SHL SUB AND PUSH1 0x0 SWAP1 DUP2 MSTORE PUSH1 0x2 PUSH1 0x20 MSTORE PUSH1 0x40 SWAP1 KECCAK256 SLOAD SWAP1 JUMP JUMPDEST PUSH2 0x190 PUSH2 0x200 CALLDATASIZE PUSH1 0x4 PUSH2 0x89B JUMP JUMPDEST PUSH2 0x500 JUMP JUMPDEST PUSH1 0x1 PUSH1 0x1 PUSH1 0xA0 SHL SUB DUP3 AND PUSH1 0x0 SWAP1 DUP2 MSTORE PUSH1 0x2 PUSH1 0x20 MSTORE PUSH1 0x40 DUP2 KECCAK256 SLOAD PUSH1 0x0 NOT DUP2 ADD PUSH2 0x231 JUMPI PUSH1 0x1 SWAP2 POP POP PUSH2 0x284 JUMP JUMPDEST PUSH1 0x1 DUP4 SUB PUSH2 0x243 JUMPI PUSH1 0x1 EQ SWAP1 POP PUSH2 0x284 JUMP JUMPDEST PUSH1 0x2 DUP4 SUB PUSH2 0x262 JUMPI PUSH1 0x1 DUP2 EQ DUP1 PUSH2 0x25A JUMPI POP PUSH1 0x2 DUP2 EQ JUMPDEST SWAP2 POP POP PUSH2 0x284 JUMP JUMPDEST PUSH1 0x4 DUP4 SUB PUSH2 0x27E JUMPI PUSH1 0x1 DUP2 EQ DUP1 PUSH2 0x25A JUMPI POP PUSH1 0x4 EQ SWAP1 POP PUSH2 0x284 JUMP JUMPDEST PUSH1 0x0 SWAP2 POP POP JUMPDEST SWAP3 SWAP2 POP POP JUMP JUMPDEST PUSH1 0x0 DUP3 DUP2 MSTORE PUSH1 0x3 PUSH1 0x20 MSTORE PUSH1 0x40 DUP2 KECCAK256 SLOAD DUP3 LT PUSH2 0x2E2 JUMPI PUSH1 0x40 MLOAD PUSH3 0x461BCD PUSH1 0xE5 SHL DUP2 MSTORE PUSH1 0x20 PUSH1 0x4 DUP3 ADD MSTORE PUSH1 0x13 PUSH1 0x24 DUP3 ADD MSTORE PUSH19 0x496E646578206F7574206F6620626F756E6473 PUSH1 0x68 SHL PUSH1 0x44 DUP3 ADD MSTORE PUSH1 0x64 ADD JUMPDEST PUSH1 0x40 MLOAD DUP1 SWAP2 SUB SWAP1 REVERT JUMPDEST PUSH1 0x0 DUP4 DUP2 MSTORE PUSH1 0x3 PUSH1 0x20 MSTORE PUSH1 0x40 SWAP1 KECCAK256 DUP1 SLOAD DUP4 SWAP1 DUP2 LT PUSH2 0x302 JUMPI PUSH2 0x302 PUSH2 0x91B JUMP JUMPDEST PUSH1 0x0 SWAP2 DUP3 MSTORE PUSH1 0x20 SWAP1 SWAP2 KECCAK256 ADD SLOAD PUSH1 0x1 PUSH1 0x1 PUSH1 0xA0 SHL SUB AND SWAP4 SWAP3 POP POP POP JUMP JUMPDEST PUSH2 0x326 PUSH2 0x53E JUMP JUMPDEST PUSH2 0x330 PUSH1 0x0 PUSH2 0x56B JUMP JUMPDEST JUMP JUMPDEST PUSH2 0x33A PUSH2 0x5BB JUMP JUMPDEST PUSH1 0x0 SLOAD PUSH1 0x1 PUSH1 0x1 PUSH1 0xA0 SHL SUB AND CALLER EQ DUP1 PUSH2 0x362 JUMPI POP CALLER PUSH1 0x0 SWAP1 DUP2 MSTORE PUSH1 0x5 PUSH1 0x20 MSTORE PUSH1 0x40 SWAP1 KECCAK256 SLOAD PUSH1 0xFF AND JUMPDEST PUSH2 0x3AE JUMPI PUSH1 0x40 MLOAD PUSH3 0x461BCD PUSH1 0xE5 SHL DUP2 MSTORE PUSH1 0x20 PUSH1 0x4 DUP3 ADD MSTORE PUSH1 0x1B PUSH1 0x24 DUP3 ADD MSTORE PUSH32 0x4E6F7420617574686F72697A656420746F2073657420726F6C65730000000000 PUSH1 0x44 DUP3 ADD MSTORE PUSH1 0x64 ADD PUSH2 0x2D9 JUMP JUMPDEST PUSH1 0x1 PUSH1 0x1 PUSH1 0xA0 SHL SUB DUP3 AND PUSH2 0x404 JUMPI PUSH1 0x40 MLOAD PUSH3 0x461BCD PUSH1 0xE5 SHL DUP2 MSTORE PUSH1 0x20 PUSH1 0x4 DUP3 ADD MSTORE PUSH1 0x18 PUSH1 0x24 DUP3 ADD MSTORE PUSH32 0x5A65726F2061646472657373206E6F7420616C6C6F7765640000000000000000 PUSH1 0x44 DUP3 ADD MSTORE PUSH1 0x64 ADD PUSH2 0x2D9 JUMP JUMPDEST PUSH1 0x1 PUSH1 0x1 PUSH1 0xA0 SHL SUB DUP3 AND PUSH1 0x0 SWAP1 DUP2 MSTORE PUSH1 0x2 PUSH1 0x20 MSTORE PUSH1 0x40 SWAP1 KECCAK256 SLOAD PUSH2 0x427 DUP4 DUP4 PUSH2 0x5E5 JUMP JUMPDEST PUSH1 0x40 DUP1 MLOAD DUP3 DUP2 MSTORE PUSH1 0x20 DUP2 ADD DUP5 SWAP1 MSTORE PUSH1 0x1 PUSH1 0x1 PUSH1 0xA0 SHL SUB DUP6 AND SWAP2 PUSH32 0xDA65EFF493AACBAACD2348758C3C840DC21890AE310BF3500E2688198C0BD2B1 SWAP2 ADD PUSH1 0x40 MLOAD DUP1 SWAP2 SUB SWAP1 LOG2 POP PUSH2 0x475 PUSH1 0x1 DUP1 SSTORE JUMP JUMPDEST POP POP JUMP JUMPDEST PUSH2 0x481 PUSH2 0x53E JUMP JUMPDEST PUSH1 0x1 PUSH1 0x1 PUSH1 0xA0 SHL SUB DUP3 AND PUSH1 0x0 DUP2 DUP2 MSTORE PUSH1 0x5 PUSH1 0x20 MSTORE PUSH1 0x40 SWAP1 KECCAK256 DUP1 SLOAD PUSH1 0xFF NOT AND DUP4 ISZERO ISZERO OR SWAP1 SSTORE PUSH32 0xDA65EFF493AACBAACD2348758C3C840DC21890AE310BF3500E2688198C0BD2B1 DUP3 PUSH2 0x4D2 JUMPI PUSH1 0x1 PUSH2 0x4D5 JUMP JUMPDEST PUSH1 0x0 JUMPDEST DUP4 PUSH2 0x4E1 JUMPI PUSH1 0x0 PUSH2 0x4E4 JUMP JUMPDEST PUSH1 0x1 JUMPDEST PUSH1 0x40 DUP1 MLOAD SWAP3 DUP4 MSTORE PUSH1 0x20 DUP4 ADD SWAP2 SWAP1 SWAP2 MSTORE ADD PUSH1 0x40 MLOAD DUP1 SWAP2 SUB SWAP1 LOG2 POP POP JUMP JUMPDEST PUSH2 0x508 PUSH2 0x53E JUMP JUMPDEST PUSH1 0x1 PUSH1 0x1 PUSH1 0xA0 SHL SUB DUP2 AND PUSH2 0x532 JUMPI PUSH1 0x40 MLOAD PUSH4 0x1E4FBDF7 PUSH1 0xE0 SHL DUP2 MSTORE PUSH1 0x0 PUSH1 0x4 DUP3 ADD MSTORE PUSH1 0x24 ADD PUSH2 0x2D9 JUMP JUMPDEST PUSH2 0x53B DUP2 PUSH2 0x56B JUMP JUMPDEST POP JUMP JUMPDEST PUSH1 0x0 SLOAD PUSH1 0x1 PUSH1 0x1 PUSH1 0xA0 SHL SUB AND CALLER EQ PUSH2 0x330 JUMPI PUSH1 0x40 MLOAD PUSH4 0x118CDAA7 PUSH1 0xE0 SHL DUP2 MSTORE CALLER PUSH1 0x4 DUP3 ADD MSTORE PUSH1 0x24 ADD PUSH2 0x2D9 JUMP JUMPDEST PUSH1 0x0 DUP1 SLOAD PUSH1 0x1 PUSH1 0x1 PUSH1 0xA0 SHL SUB DUP4 DUP2 AND PUSH1 0x1 PUSH1 0x1 PUSH1 0xA0 SHL SUB NOT DUP4 AND DUP2 OR DUP5 SSTORE PUSH1 0x40 MLOAD SWAP2 SWAP1 SWAP3 AND SWAP3 DUP4 SWAP2 PUSH32 0x8BE0079C531659141344CD1FD0A4F28419497F9722A3DAAFE3B4186F6B6457E0 SWAP2 SWAP1 LOG3 POP POP JUMP JUMPDEST PUSH1 0x2 PUSH1 0x1 SLOAD SUB PUSH2 0x5DE JUMPI PUSH1 0x40 MLOAD PUSH4 0x3EE5AEB5 PUSH1 0xE0 SHL DUP2 MSTORE PUSH1 0x4 ADD PUSH1 0x40 MLOAD DUP1 SWAP2 SUB SWAP1 REVERT JUMPDEST PUSH1 0x2 PUSH1 0x1 SSTORE JUMP JUMPDEST PUSH1 0x1 PUSH1 0x1 PUSH1 0xA0 SHL SUB DUP3 AND PUSH1 0x0 SWAP1 DUP2 MSTORE PUSH1 0x2 PUSH1 0x20 MSTORE PUSH1 0x40 SWAP1 KECCAK256 SLOAD DUP1 ISZERO PUSH2 0x60E JUMPI PUSH2 0x60E DUP4 DUP3 PUSH2 0x63E JUMP JUMPDEST PUSH1 0x1 PUSH1 0x1 PUSH1 0xA0 SHL SUB DUP4 AND PUSH1 0x0 SWAP1 DUP2 MSTORE PUSH1 0x2 PUSH1 0x20 MSTORE PUSH1 0x40 SWAP1 KECCAK256 DUP3 SWAP1 SSTORE DUP2 ISZERO PUSH2 0x639 JUMPI PUSH2 0x639 DUP4 DUP4 PUSH2 0x7B6 JUMP JUMPDEST POP POP POP JUMP JUMPDEST PUSH1 0x0 DUP2 DUP2 MSTORE PUSH1 0x4 PUSH1 0x20 SWAP1 DUP2 MSTORE PUSH1 0x40 DUP1 DUP4 KECCAK256 PUSH1 0x1 PUSH1 0x1 PUSH1 0xA0 SHL SUB DUP7 AND DUP5 MSTORE SWAP1 SWAP2 MSTORE SWAP1 KECCAK256 SLOAD PUSH1 0xFF AND ISZERO PUSH2 0x475 JUMPI PUSH1 0x0 DUP2 DUP2 MSTORE PUSH1 0x4 PUSH1 0x20 SWAP1 DUP2 MSTORE PUSH1 0x40 DUP1 DUP4 KECCAK256 PUSH1 0x1 PUSH1 0x1 PUSH1 0xA0 SHL SUB DUP7 AND DUP5 MSTORE DUP3 MSTORE DUP1 DUP4 KECCAK256 DUP1 SLOAD PUSH1 0xFF NOT AND SWAP1 SSTORE DUP4 DUP4 MSTORE PUSH1 0x3 SWAP1 SWAP2 MSTORE DUP2 KECCAK256 SWAP1 JUMPDEST DUP2 SLOAD DUP2 LT ISZERO PUSH2 0x7B0 JUMPI DUP4 PUSH1 0x1 PUSH1 0x1 PUSH1 0xA0 SHL SUB AND DUP3 DUP3 DUP2 SLOAD DUP2 LT PUSH2 0x6C4 JUMPI PUSH2 0x6C4 PUSH2 0x91B JUMP JUMPDEST PUSH1 0x0 SWAP2 DUP3 MSTORE PUSH1 0x20 SWAP1 SWAP2 KECCAK256 ADD SLOAD PUSH1 0x1 PUSH1 0x1 PUSH1 0xA0 SHL SUB AND SUB PUSH2 0x7A8 JUMPI DUP2 SLOAD PUSH2 0x6EC SWAP1 PUSH1 0x1 SWAP1 PUSH2 0x931 JUMP JUMPDEST DUP2 EQ PUSH2 0x771 JUMPI DUP2 SLOAD DUP3 SWAP1 PUSH2 0x702 SWAP1 PUSH1 0x1 SWAP1 PUSH2 0x931 JUMP JUMPDEST DUP2 SLOAD DUP2 LT PUSH2 0x712 JUMPI PUSH2 0x712 PUSH2 0x91B JUMP JUMPDEST SWAP1 PUSH1 0x0 MSTORE PUSH1 0x20 PUSH1 0x0 KECCAK256 ADD PUSH1 0x0 SWAP1 SLOAD SWAP1 PUSH2 0x100 EXP SWAP1 DIV PUSH1 0x1 PUSH1 0x1 PUSH1 0xA0 SHL SUB AND DUP3 DUP3 DUP2 SLOAD DUP2 LT PUSH2 0x742 JUMPI PUSH2 0x742 PUSH2 0x91B JUMP JUMPDEST SWAP1 PUSH1 0x0 MSTORE PUSH1 0x20 PUSH1 0x0 KECCAK256 ADD PUSH1 0x0 PUSH2 0x100 EXP DUP2 SLOAD DUP2 PUSH1 0x1 PUSH1 0x1 PUSH1 0xA0 SHL SUB MUL NOT AND SWAP1 DUP4 PUSH1 0x1 PUSH1 0x1 PUSH1 0xA0 SHL SUB AND MUL OR SWAP1 SSTORE POP JUMPDEST DUP2 DUP1 SLOAD DUP1 PUSH2 0x781 JUMPI PUSH2 0x781 PUSH2 0x952 JUMP JUMPDEST PUSH1 0x0 DUP3 DUP2 MSTORE PUSH1 0x20 SWAP1 KECCAK256 DUP2 ADD PUSH1 0x0 NOT SWAP1 DUP2 ADD DUP1 SLOAD PUSH1 0x1 PUSH1 0x1 PUSH1 0xA0 SHL SUB NOT AND SWAP1 SSTORE ADD SWAP1 SSTORE PUSH2 0x7B0 JUMP JUMPDEST PUSH1 0x1 ADD PUSH2 0x69F JUMP JUMPDEST POP POP POP POP JUMP JUMPDEST PUSH1 0x0 DUP2 DUP2 MSTORE PUSH1 0x4 PUSH1 0x20 SWAP1 DUP2 MSTORE PUSH1 0x40 DUP1 DUP4 KECCAK256 PUSH1 0x1 PUSH1 0x1 PUSH1 0xA0 SHL SUB DUP7 AND DUP5 MSTORE SWAP1 SWAP2 MSTORE SWAP1 KECCAK256 SLOAD PUSH1 0xFF AND PUSH2 0x475 JUMPI PUSH1 0x0 DUP2 DUP2 MSTORE PUSH1 0x4 PUSH1 0x20 SWAP1 DUP2 MSTORE PUSH1 0x40 DUP1 DUP4 KECCAK256 PUSH1 0x1 PUSH1 0x1 PUSH1 0xA0 SHL SUB SWAP6 SWAP1 SWAP6 AND DUP1 DUP5 MSTORE SWAP5 DUP3 MSTORE DUP1 DUP4 KECCAK256 DUP1 SLOAD PUSH1 0xFF NOT AND PUSH1 0x1 SWAP1 DUP2 OR SWAP1 SWAP2 SSTORE SWAP4 DUP4 MSTORE PUSH1 0x3 DUP3 MSTORE DUP3 KECCAK256 DUP1 SLOAD SWAP4 DUP5 ADD DUP2 SSTORE DUP3 MSTORE SWAP1 KECCAK256 ADD DUP1 SLOAD PUSH1 0x1 PUSH1 0x1 PUSH1 0xA0 SHL SUB NOT AND SWAP1 SWAP2 OR SWAP1 SSTORE JUMP JUMPDEST PUSH1 0x0 PUSH1 0x20 DUP3 DUP5 SUB SLT ISZERO PUSH2 0x84E JUMPI PUSH1 0x0 DUP1 REVERT JUMPDEST POP CALLDATALOAD SWAP2 SWAP1 POP JUMP JUMPDEST DUP1 CALLDATALOAD PUSH1 0x1 PUSH1 0x1 PUSH1 0xA0 SHL SUB DUP2 AND DUP2 EQ PUSH2 0x86C JUMPI PUSH1 0x0 DUP1 REVERT JUMPDEST SWAP2 SWAP1 POP JUMP JUMPDEST PUSH1 0x0 DUP1 PUSH1 0x40 DUP4 DUP6 SUB SLT ISZERO PUSH2 0x884 JUMPI PUSH1 0x0 DUP1 REVERT JUMPDEST PUSH2 0x88D DUP4 PUSH2 0x855 JUMP JUMPDEST SWAP5 PUSH1 0x20 SWAP4 SWAP1 SWAP4 ADD CALLDATALOAD SWAP4 POP POP POP JUMP JUMPDEST PUSH1 0x0 PUSH1 0x20 DUP3 DUP5 SUB SLT ISZERO PUSH2 0x8AD JUMPI PUSH1 0x0 DUP1 REVERT JUMPDEST PUSH2 0x8B6 DUP3 PUSH2 0x855 JUMP JUMPDEST SWAP4 SWAP3 POP POP POP JUMP JUMPDEST PUSH1 0x0 DUP1 PUSH1 0x40 DUP4 DUP6 SUB SLT ISZERO PUSH2 0x8D0 JUMPI PUSH1 0x0 DUP1 REVERT JUMPDEST POP POP DUP1 CALLDATALOAD SWAP3 PUSH1 0x20 SWAP1 SWAP2 ADD CALLDATALOAD SWAP2 POP JUMP JUMPDEST PUSH1 0x0 DUP1 PUSH1 0x40 DUP4 DUP6 SUB SLT ISZERO PUSH2 0x8F2 JUMPI PUSH1 0x0 DUP1 REVERT JUMPDEST PUSH2 0x8FB DUP4 PUSH2 0x855 JUMP JUMPDEST SWAP2 POP PUSH1 0x20 DUP4 ADD CALLDATALOAD DUP1 ISZERO ISZERO DUP2 EQ PUSH2 0x910 JUMPI PUSH1 0x0 DUP1 REVERT JUMPDEST DUP1 SWAP2 POP POP SWAP3 POP SWAP3 SWAP1 POP JUMP JUMPDEST PUSH4 0x4E487B71 PUSH1 0xE0 SHL PUSH1 0x0 MSTORE PUSH1 0x32 PUSH1 0x4 MSTORE PUSH1 0x24 PUSH1 0x0 REVERT JUMPDEST DUP2 DUP2 SUB DUP2 DUP2 GT ISZERO PUSH2 0x284 JUMPI PUSH4 0x4E487B71 PUSH1 0xE0 SHL PUSH1 0x0 MSTORE PUSH1 0x11 PUSH1 0x4 MSTORE PUSH1 0x24 PUSH1 0x0 REVERT JUMPDEST PUSH4 0x4E487B71 PUSH1 0xE0 SHL PUSH1 0x0 MSTORE PUSH1 0x31 PUSH1 0x4 MSTORE PUSH1 0x24 PUSH1 0x0 REVERT INVALID LOG2 PUSH5 0x6970667358 0x22 SLT KECCAK256 DELEGATECALL PUSH14 0x4E7F8B4A76D361C7D962F3E79E8A CALLDATACOPY DUP13 JUMPDEST 0xCD ADD 0xC8 SWAP14 SLT 0xC PUSH10 0xBE85AB5A7F9564736F6C PUSH4 0x43000818 STOP CALLER "},"methodIdentifiers":{"hasMinimumRole(address,uint256)":"1c787568","hasRole(address,uint256)":"5c97f4a2","isRoleManager(address)":"2d524393","owner()":"8da5cb5b","renounceOwnership()":"715018a6","roleMemberAt(uint256,uint256)":"6011dce0","roleMemberCount(uint256)":"0bc13f08","roleOf(address)":"a5d7827e","setRole(address,uint256)":"74277a63","setRoleManager(address,bool)":"a1ca3586","transferOwnership(address)":"f2fde38b"}}}}}